:020000040800F2
:10000000503600209D010008670C0008F706000824
:10001000890B0008FD040008B13A00080000000048
:10002000000000000000000000000000E5370008AC
:100030008D050008000000001D030008792200085B
:10004000D7010008D7010008D7010008D701000830
:10005000D7010008D7010008D7010008D701000820
:10006000D7010008D7010008D7010008D701000810
:10007000D7010008D7010008D7010008D701000800
:10008000D7010008D7010008D7010008D7010008F0
:10009000D7010008D7010008D7010008D7010008E0
:1000A000D7010008D7010008D7010008D7010008D0
:1000B000D7010008D7010008D7010008D7010008C0
:1000C000D7010008D7010008D7010008D7010008B0
:1000D000D7010008FD380008D7010008D701000843
:1000E000D7010008D7010008D7010008D701000890
:1000F000D7010008D7010008D7010008D701000880
:10010000D7010008D7010008D7010008D70100086F
:10011000D7010008D7010008D7010008D70100085F
:10012000D7010008D7010008D7010008D70100084F
:10013000D7010008D7010008D7010008D70100083F
:10014000D7010008D7010008D7010008D70100082F
:10015000D7010008D7010008D7010008D70100081F
:10016000D7010008D7010008D7010008D70100080F
:10017000D7010008D7010008D7010008D7010008FF
:10018000D7010008D7010008DFF80CD000F05CF8B8
:10019000004800479540000850360020DFF838003E
:1001A000016841F470010160BFF34F8FDFF82C004C
:1001B000016821F040410160BFF36F8F084880471C
:1001C00008480047FEE7FEE7FEE7FEE7FEE7FEE73A
:1001D000FEE7FEE7FEE7FEE788ED00E034EF00E033
:1001E000A13800088901000872B6704762B67047EE
:1001F000EFF3108072B6704780F31088704730BFFD
:10020000704720BF7047B0FA80F0704790FAA0F0B6
:10021000B0FA80F0704790FAA0F0704730B50B4606
:10022000014600202022012409E021FA02F59D4226
:1002300005D303FA02F5491B04FA02F52844151EFA
:10024000A2F10102F1DC30BD064C074D06E0E0688A
:1002500040F0010394E8070098471034AC42F6D30D
:10026000FFF796FFE048000800490008EFF3098116
:1002700041B1F1EE101A40F8041D20ED200A3B496F
:100280000A6810607047B0EC200A02C8E1EE101A4C
:1002900037490A681060704772B64EF62250CEF2A7
:1002A000000040F2FF01C0F20001017040F2FC00CA
:1002B000C2F20000016881F3088840F27200C2F2C5
:1002C000000040F27301C2F200010A78027040F2AD
:1002D000F405C2F2000540F2F801C2F200010A681A
:1002E0002A60106880F30988EFF3148040F0020060
:1002F00080F31488BFF36F8FBDE8F00F0FBCBDE82B
:10030000005006BC62B608471A484FF080510160A1
:10031000704718484FF080510160704772B6EFF394
:10032000098020E9F00F40F2F405C2F200052E68C2
:100330003060744601F0C8FD40F27200C2F2000065
:1003400040F27301C2F200010A78027040F2F80133
:10035000C2F200010A682A6044F0F40E1068B0E8A6
:10036000F00F80F3098862B670470000F4000020A7
:10037000F800002004ED00E02DE9F0438BB000F020
:10038000BEF800F0B0F800F0A7F83B490968B0FBF0
:10039000F1F001F083FF00F0FDFB0AA801F00AFA7A
:1003A00036480226CDE9006000240AAD33462246D5
:1003B00033A1CDE90245344801F0BCFE33480123A6
:1003C000CDE900603048022231A1CDE9024530304C
:1003D00001F0B0FEFFF70CFF81460326CDE906468B
:1003E0002D480190059480274FF00C080720CDE997
:1003F000028700902848089504940023274A28A1E2
:10040000C03801F035FACDE9064628480190059438
:100410000620CDE902870090244808950494002323
:10042000234A24A1C03801F023FACDE906460594F9
:10043000B8000895CDE903043321214ACDE9012113
:10044000042000901E4800231E4A1FA1C03801F05E
:100450000FFA0AA90C4801F0B7FE0B480AA9303080
:1004600001F0B2FE0AA91B4801F0B6FA4846FFF7B0
:10047000C3FE0BB0BDE8F083B8480008E9410008AE
:10048000746D72310000000010120020F941000864
:10049000746D723200000000440D002049400008D5
:1004A0004C4544207461736B000000000410002070
:1004B000F540000853484F57207461736B000000EB
:1004C000840400205D3E00084B4559207461736B25
:1004D00000000000040100201FB5684603F030F959
:1004E000019804B010BD10B500F024FB00F050F8E6
:1004F00000F002F9BDE8104000F01DBCFEE710B5A9
:1005000000F018F8BDE8104000F010B810B5FFF783
:100510006FFE04461021044800F037FB2046BDE87A
:100520001040FFF769BE000070120020FFF7EEBF19
:10053000FEE7000002490020086000F009B8000052
:1005400028000020014908607047000028000020B2
:1005500010B5FFF7C1FF08490A6842F080720A60CF
:10056000064900224A600A6842F001020A60BDE8BA
:100570001040FFF7E7BF0000FCED00E0001000E0D6
:100580000148406870470000001000E0704700001C
:1005900070B586B00121084603F0B6F8012110209D
:1005A00003F0C0F800248DF8164001208DF81700E4
:1005B00002258DF815508DF81450400204901C4E01
:1005C00004A9304600F038F88DF8145069020491FF
:1005D00004A9304600F030F807220A21304600F026
:1005E00069F807220921304600F064F84FF4E13041
:1005F0000090ADF80440ADF80640ADF80840ADF805
:100600000C400C20ADF80A000A4C6946204603F065
:10061000E9F900F029FB012240F22551204603F0C0
:10062000C6F90121204603F08FF906B070BD000025
:1006300000000240001001402DE9F0410022012796
:100640004FF0030C07FA02F50B682B40AB422CD19C
:10065000066853000CFA03F4A64306600E79D0F83E
:1006600000809E4046EA080606600E79012E01D001
:10067000022E12D18668A64386604E79D0F8088093
:100680009E4046EA080686604668AE434660456876
:100690008E799640B6B235434560C568A543C560BE
:1006A000CC799C40C3681C43C460521C102AC9D337
:1006B000BDE8F08110B54B07DB0E9A40C90800EB8E
:1006C0008100016A0F249C40A1430162016A114329
:1006D000016210BD0246002012690A4200D00120CA
:1006E00070474183704701837047002A01D001831E
:1006F000704741837047FEE72DE9FC410121082046
:1007000003F002F81020009001258DF80450022417
:100710008DF8054000268DF806608DF807502F4FA4
:1007200069463846FFF788FF202000908DF8045076
:100730008DF805408DF806608DF8075069463846FB
:10074000FFF77AFF402000908DF804508DF80540A7
:100750008DF806608DF8075069463846FFF76CFF44
:100760008DF804508DF805408DF806608DF807501F
:100770008020009069463846FFF75EFF00958DF8AF
:1007800004608DF807408DF8054069463846FFF74C
:1007900053FF00948DF804608DF807408DF80540F4
:1007A00069463846FFF748FF042000908DF8046042
:1007B0008DF807408DF8054069463846FFF73CFF45
:1007C0008DF804608DF807408DF8054008200090F2
:1007D00069463846FFF730FFBDE8FC81000C024057
:1007E0002DE9F041D14F10213846FFF77CFF202141
:1007F0003846FFF778FF40213846FFF774FF802125
:100800003846FFF770FF01213846FFF763FF0546C2
:1008100002213846FFF75EFF054304213846FFF703
:1008200059FF054308213846FFF754FF05433DD0E3
:1008300001213846FFF74EFF054602213846FFF7F3
:1008400049FF054304213846FFF744FF05430821CB
:100850003846FFF73FFF05432BD010213846FFF7FE
:1008600040FF20213846FFF73CFF40213846FFF784
:1008700038FF80213846FFF736FF01213846FFF761
:1008800029FFAB4E307002213846FFF723FF70700E
:1008900004213846FFF71EFFB07008213846FFF7E5
:1008A00019FFF0703178012905D00AE00F20BDE86A
:1008B000F0810F20FBE772781AB9B2780AB900B953
:1008C0000B2431B97278012A03D1B2780AB900B980
:1008D000002472781143B27851EA020302D1012850
:1008E00000D1442419B9012A01D100B90C240121F5
:1008F0003846FFF7EFFE054602213846FFF7EAFECD
:10090000054304213846FFF7E5FE05430821384634
:10091000FFF7E0FE0543EAD110213846FFF7E3FE7A
:1009200020213846FFF7DDFE40213846FFF7D9FE8B
:1009300080213846FFF7D5FE01213846FFF7CAFE71
:10094000307002213846FFF7C5FE7070042138462A
:10095000FFF7C0FEB07008213846FFF7BBFEF0700D
:100960003178012905D172781AB9B2780AB900B97B
:10097000012431B97278012A03D1B2780AB900B9D9
:1009800002247278114304D1B278012A01D100B94E
:100990000324B278114302D1012800D1412401215E
:1009A0003846FFF797FE054602213846FFF792FECC
:1009B000054304213846FFF78DFE054308213846DC
:1009C000FFF788FE0543EAD110213846FFF789FE7C
:1009D00020213846FFF787FE40213846FFF781FE89
:1009E00080213846FFF77DFE01213846FFF772FE71
:1009F000307002213846FFF76DFE707004213846D2
:100A0000FFF768FEB07008213846FFF763FEF0700C
:100A10003178012905D172781AB9B2780AB900B9CA
:100A2000042431B97278012A03D1B2780AB900B925
:100A300005247278114304D1B278012A01D100B99A
:100A40000624B278114302D1012800D142240121A9
:100A50003846FFF73FFE054602213846FFF73AFECB
:100A6000054304213846FFF735FE05430821384683
:100A7000FFF730FE0543EAD110213846FFF731FE7B
:100A800020213846FFF72DFE40213846FFF72BFE88
:100A900080213846FFF725FE01213846FFF71AFE70
:100AA000307002213846FFF715FE70700421384679
:100AB000FFF710FEB07008213846FFF70BFEF0700C
:100AC0003178012905D172781AB9B2780AB900B91A
:100AD000072431B97278012A03D1B2780AB900B972
:100AE00008247278114304D1B278012A01D100B9E7
:100AF0000924B278114302D1012800D143240121F5
:100B00003846FFF7E7FD054602213846FFF7E2FDCC
:100B1000054304213846FFF7DDFD0543082138462B
:100B2000FFF7D8FD0543EAD12046C0E6000C02409D
:100B3000240000202DE9FC410121084602F0E4FDDB
:100B40004027009701208DF8040000218DF8061041
:100B50008DF807008DF805100A4C69462046FFF70E
:100B60006BFD8026009669462046FFF765FDA515BA
:100B7000009569462046FFF75FFD2783268325837E
:100B8000BDE8FC8100000240FEE70A46002100F0BB
:100B90004BB800000EB50C49002008600B4A02A8B3
:100BA0000121CDE900104FF4406302F5406108A037
:100BB00000F012F8BDF80800A0F51C51103901D062
:100BC000FFF7B6FC0EBD00002C00002080120020B4
:100BD00048656170000000002DE9F84F0646DDE928
:100BE0000A950F4690461C46FFF702FB82464B468D
:100BF000424639463046009400F008F85046FFF768
:100C0000FBFA42F210702880BDE8F88F00980A6065
:100C10001044401E48608A6002480268CA600B6146
:100C2000016070472C00002010B5002300241B0237
:100C30000B43641C042CFAD300F0030424B909E02C
:100C400000F8011B521E641C22B1042CF8D301E0F1
:100C500008C0121F042AFBD202E000F8011B521E3A
:100C6000002AFAD110BD704708B54FF4407000F06B
:100C700045F825208DF8000005208DF801000020A2
:100C80008DF8020001208DF80300684600F002F89C
:100C900008BD000030B50F23C27801250178002A75
:100CA0001FD0154A126802F4E062C2F5E062C2F396
:100CB0000722C2F10404D3404278A24084781C4049
:100CC0001443220101F1E02181F80024007800F0B2
:100CD0001F018D404009800000F1E020C0F8005164
:100CE00030BD01F01F0085404809800000F1E02080
:100CF000C0F8805130BD00000CED00E0024908430F
:100D000002490860704700000000FA050CED00E0A1
:100D100070B500250021284600F0E0F800240020EE
:100D200000F06AF9641CE4B2802CF8D36D1CEDB2BB
:100D3000082DEFD370BD10B500214FF47A7200205A
:100D4000401C9042FCD3491C6429F8D300F052F8AF
:100D5000AE2000F035F9D52000F032F9802000F007
:100D60002FF9A82000F02CF93F2000F029F9D3201A
:100D700000F026F9002000F023F9402000F020F9CF
:100D8000A12000F01DF9C82000F01AF9DA2000F0C7
:100D900017F9122000F014F9812000F011F9CF208A
:100DA00000F00EF9D92000F00BF9F12000F008F95D
:100DB000DB2000F005F9302000F002F9A42000F05B
:100DC000FFF8A62000F0FCF88D2000F0F9F81420C0
:100DD00000F0F6F8AF2000F0F3F8BDE81040FFF7A0
:100DE00097BF0346012000E05843491E4A1CFBD12F
:100DF000704700002DE9FC470121042002F084FC2B
:100E000001208DF8040000218DF8061002218DF8D4
:100E100005108DF8070004030094DFF8749069460C
:100E20004846FFF709FC6500009569464846FFF70C
:100E300003FCA600009669464846FFF7FDFBE70065
:100E4000009769464846FFF7F7FB4FF40068CDF876
:100E5000008069464846FFF7EFFB012221464846DD
:100E6000FFF743FC012229464846FFF73EFC0122DA
:100E700031464846FFF739FC012239464846FFF71C
:100E800034FC012241464846FFF72FFCBDE8FC87B1
:100E9000000802402DE9F047074600240E4E4FF4AB
:100EA00080554FF080084FF4005900222946304603
:100EB000FFF71BFC28FA04F23A4049463046FFF798
:100EC00014FC012229463046FFF70FFC641CE4B2F3
:100ED000082CEAD3BDE8F0870008024010B50C46A4
:100EE00040F0B00000F06CF8102040EA141000F060
:100EF00067F804F00F00BDE8104000F061B8000092
:100F00002DE9F0411546491E461ECF007006F9B284
:100F1000000EFFF7E3FF00240E48203D00EB05150F
:100F2000285D00F069F8641CE4B2082CF8D30120B5
:100F300000EB4600F9B2C0B2FFF7D0FF0024281939
:100F4000007A00F059F8641CE4B2082CF7D3BDE82D
:100F5000F0810000924200082DE9F04781460F46DB
:100F600090461E4600240A2512E0311B491E0A2025
:100F7000FFF737FFB8FBF0F2B2FBF5F005FB1022EC
:100F80003819C1B230324846FFF7BAFF641CE4B2E8
:100F9000B442EAD3BDE8F0872DE9F04107460D469B
:100FA0001646002406E02819C1B23846FFF7A8FF0C
:100FB000641CE4B2325D002AF5D1BDE8F081000086
:100FC00070B506460B4D4FF40064002221462846BA
:100FD000FFF78BFB002221012846FFF786FB3046F6
:100FE000FFF758FF21462846BDE870400122FFF771
:100FF0007CBB00000008024070B506460B4D4FF464
:101000000064002221462846FFF76FFB0122D1032E
:101010002846FFF76AFB3046FFF73CFF214628468B
:10102000BDE870400122FFF760BB000000080240ED
:101030007047000002480068002800D00047704751
:101040004400002010B5044600F0AAF83F480022F2
:1010500002703F4802703F4802703F4802603F48BC
:1010600002603F4802703F4802703F4802703F48AC
:1010700002603F4802603F4802603F49086840B153
:101080003E48006828B1096801E0491E04C00029F3
:10109000FBD13B4802603B4802603B4802603B4852
:1010A00002603B4802603B4802603B4802603B48AC
:1010B000027001F09FFB01F0D5FB204601F004F91E
:1010C0002088002841D1204601F052F920880028CC
:1010D0003BD1204601F058F92088002835D1204620
:1010E00001F00AFA208800282FD1204601F0AEFB3B
:1010F0002088002829D1204601F06EFC2088002895
:1011000023D1204601F082FE208800281DD12046F0
:1011100001F0FAF82088002817D1204602F07EF965
:101120002088002811D1204601F066FD2088002883
:101130000BD1204602F0DCF92088002805D101F00F
:10114000C1F8BDE81040FFF773BF10BD5800002084
:10115000590000208C000020F4000020F80000203E
:101160007200002073000020740000208000002026
:10117000840000208800002094480008904800085F
:10118000380000203C0000204000002044000020E7
:10119000480000204C00002050000020BA00002031
:1011A000054806490068096800EB8100044920F001
:1011B0000700086070470000904800089448000845
:1011C000FC00002005480078012805D10449087872
:1011D000FA2801D2401C0870704700005900002016
:1011E0005800002010B52248007801283ED1FEF7B3
:1011F000FFFF04461F49087840B1401EC0B2087086
:1012000048B12046BDE81040FEF7F6BF2046BDE8D5
:101210001040FEF7F1BF1848007820B12046BDE825
:101220001040FEF7E9BF01F0D3FA144908701449E1
:1012300000EB400051F8200012490860124909688B
:10124000884204D12046BDE81040FEF7D5BF50F8D3
:101250008C1F491C01600D480168491C0160FFF7A3
:1012600058F82046BDE81040FEF7C6BF10BD00008C
:1012700059000020580000208C000020730000203E
:10128000E02C0020F8000020F4000020B000002036
:101290002DE9F04104460D461646002C1CD0FEF701
:1012A000A7FF07460E48206065600025256265623D
:1012B00084F82850E56204F1080001F0B9F92046ED
:1012C00001F0BCF807490888401C08803846FEF742
:1012D00093FF3580BDE8F08145F6C3503080F9E7D3
:1012E0004D555458700000202DE9F04F89B0064646
:1012F000129D8B4690461C46002E0BD0B8F1000F75
:101300000CD0B8F5004F09D045F62560288009B00B
:10131000BDE8F08F45F6C3502880F8E745493068AE
:10132000884203D045F6C4502880F0E7002704B176
:101330002760FEF75DFF814696F82810DFF8F8A0D9
:1013400089B1706ADAF8002090421FD1491C86F8F2
:1013500028100CB1F06A20604846FEF74DFF45F2B8
:1013600082702880D3E7DAF800007062012086F8E6
:1013700028000CB1F06A20603146DAF8000001F074
:101380006FF84846FEF738FF2F80C0E75FEA084154
:1013900006D54846FEF730FF46F2B0102880B6E783
:1013A0002649097831B14846FEF726FF46F66350D4
:1013B0002880ACE790F8373092F837108B4201D98B
:1013C00001F092FC5B460422314601A801F0A0F82E
:1013D0004846FEF711FF00F0D3F8FEF709FFDAF8F0
:1013E000002092F8351059B101290ED0022919D0E8
:1013F000032911D046F62E612980FEF7FDFE86E70F
:101400000CB1916C21602F80F7E70CB1916C2160D9
:1014100046F2A9112980F0E704B1276047F2D921EB
:101420002980EAE70CB1916C216045F6C251298010
:10143000E3E700004D555458F40000208C000020D4
:101440002DE9F84F044689461546002C0AD0B9F11B
:10145000000F0BD0B9F5004F08D045F62560288065
:10146000BDE8F88F45F6C3502880F9E74149206868
:10147000884203D045F6C4502880F1E7FEF7B8FE55
:101480008246DFF8F4B0606ADBF80010884206D0CC
:101490005046FEF7B1FE45F281702880E0E7FFF785
:1014A0006FF88046C4F82C8094F82800401EC0B223
:1014B00084F8280030B15046FEF79EFE45F2837056
:1014C0002880CDE72146DBF8000001F009F804F19F
:1014D00008073889F0B3DBF8000090F8371090F86F
:1014E000382091421DD000F0EAFFDBF8001091F89F
:1014F0003820824200D21046064691F83700B042AA
:101500000FD2084601F012FADBF8000080F83760CD
:10151000304601F07BF9DBF8000001F0EBF91748E9
:101520000670386886686662012084F828002146C3
:10153000304600F095FF00231A4631462046CDF88C
:10154000008001F0D8F85046FEF756FE5FEA0940E9
:1015500003D400E004E000F013F8002028807FE7C7
:101560000026666284F828605046FEF745FE2E800D
:1015700076E700004D555458F4000020720000201A
:1015800010B517480078002829D11648007800289F
:1015900025D1FEF72DFE044601F01AF91249087014
:1015A000124900EB400051F8200011490860114930
:1015B0000968884204D12046BDE81040FEF71CBEF1
:1015C00050F88C1F491C01600B480168491C0160E0
:1015D000FEF79AFE2046FEF70FFEBFF36F8F10BD99
:1015E000580000208C00002073000020E02C002018
:1015F000F8000020F4000020B000002070B5044680
:101600000E480078012803D045F68960208070BD1F
:101610000B4D2878FA2803D345F20920208070BDAD
:10162000FEF7E6FD06462878401C287001F0A8F970
:101630003046FEF7E1FD0020208070BD59000020FB
:101640008C00002070B5044613480078012803D0B0
:1016500045F68960208070BD104E307870B1FEF77D
:10166000C7FD05463078401EC0B2307050B12846E4
:10167000FEF7C2FD46F66350208070BD46F664500A
:10168000208070BD01F08AF92846FEF7B5FDFFF70E
:1016900077FF0020208070BD590000208C000020C2
:1016A00070B504460F4D2878002803D045F68A60AF
:1016B000208070BD01F08CF80B4908700B49087050
:1016C0000B4900EB400051F820000A4908600A4924
:1016D000086001202870FEF7DFFD43F69920208086
:1016E00070BD00005900002073000020720000202F
:1016F000E02C0020F8000020F40000202DE9F0414B
:101700000646FEF775FD234900250D8022490D6030
:1017100022490D6022490D6022490D6022490D8148
:10172000FEF76AFDFEF764FD20490C68FEF764FDD4
:1017300017E0FEF75DFD07467434E5632560256319
:10174000A561A582E5826562A562FEF719FF2062A8
:10175000743C2046A0F86C50D4F8B8403846FEF7E8
:101760004BFD002CE5D1FEF743FD11490C68FEF757
:1017700043FD06E0FEF73CFD21468D85A469FEF79A
:101780003BFD002CF6D101F076FD01F04DFF3580D8
:10179000BDE8F0819A000020AC000020C0000020CD
:1017A000E400002084000020D42C0020B40000209D
:1017B00078000020F8B504466946224800F078FB1E
:1017C000BDF8000008B12080F8BD6A460021022063
:1017D00000F0B4FBBDF8000008B12080F8BDFEF7B2
:1017E00007FD194E00253560FEF706FD002017495C
:1017F000174A0B681768BB4203D908681268B0FB28
:10180000F2F018B909680A20B1FBF0F06A4600212D
:1018100000F094FB69460B4800F07AF9BDF800002F
:1018200008B12080F8BDFEF7E3FC0A490D600A4AC2
:1018300031681160094A01211170FEF7DDFC258035
:10184000F8BD0000903100209C000020B84800083E
:10185000A4480008AC000020A0000020A800002040
:1018600002480068002800D0004770474800002068
:101870002DE9FF4F83B00446DDE91795DDE91087B8
:10188000139E9346002C0DD0BBF1000F0ED08FB1EC
:1018900049480068864211D246F63060288007B079
:1018A000BDE8F08F47F2AD102880F8E747F24F10FF
:1018B0002880F4E746F62F602880F0E71298B042BF
:1018C00003D346F631602880E9E746F27320B8F189
:1018D000400F01D32880E2E7B8F13F0F04D1374928
:1018E0008C4201D02880DAE7204601F09FFA4FF0C1
:1018F000000AA5F800A05FEAC9700BD05FEA897002
:1019000008D53846002103E0C0F800A0001D491C9E
:10191000B142F9D3129807EB8005CDE900692B4657
:101920003A465846069900F00BFAC4F828B00699D2
:10193000E1620499216284F8378084F8388020605D
:10194000A5601698606067622664A4F84490002041
:1019500004EB8001C1F878A0401CC0B20028F7D089
:1019600004F16000149900F061FD204600F02CF8AD
:10197000FEF73EFC054694F8370000F047FF20468E
:1019800000F0B8FF204601F00FFA0D490888401C0E
:1019900008800C480078012805D007B02846BDE82B
:1019A000F04FFEF729BC2846FEF726FC07B0BDE83D
:1019B000F04FFFF7E5BD0000B4480008142C0020EC
:1019C000B80000205900002002490968002900D011
:1019D00008477047380000202DE9F04704460F46BD
:1019E0004448844204D147F24C103880BDE8F08767
:1019F0002CB9FEF7FDFB40490C68FEF7FDFBFEF736
:101A0000F7FB814694F836004FF0000808286AD2A8
:101A1000DFE800F004080C0C47080C0C204600F02E
:101A200085FF3EE0204601F0FDFB3AE094F83400EB
:101A300007282DD2DFE800F02C042C040804040051
:101A4000204600F028FE23E0206BC068456A15F8A8
:101A5000376F204600F01FFE28786978373D8842AE
:101A60000CD094F83710884208D1284600F027FDA2
:101A700095F83810814200D20846064684F8348032
:101A800095F83700B04203D03146284601F02CF9D2
:101A900094F83600032801D0072802D1204601F02F
:101AA000C1FBE06B10B1204600F0DEFC04F16000E9
:101AB00000F0A0FC204600F023F8204601F086F953
:101AC0000E490888401E0880204601F0AFF9FF202B
:101AD00084F836004846FEF78FFBA7F80080BDE883
:101AE000F047FFF74DBD4846FEF786FB46F62D60F2
:101AF00038807BE7142C0020F4000020B800002080
:101B000002490968002900D0084770473C000020BE
:101B100070B504460D46FEF76BFB1CB1084A12680F
:101B2000944205D1FEF768FB47F25710288070BD3C
:101B3000FEF762FB29462046BDE8704001F0CAB9B5
:101B4000F400002002490968002900D008477047C6
:101B5000400000202DE9F05F83468A4614461D466A
:101B6000BAF1000F08D0BAF5004F05D045F6256050
:101B700028800020BDE8F09F002604B12660FEF713
:101B800037FB81463B4F3868D0F84C80B8F1000FE6
:101B90001AD0A8F10108C0F84C800CB1806C20600C
:101BA000FEF7EEFC01463868826C891AC0F8A01076
:101BB000D0F8A4208A4201D2C0F8A4104846FEF70B
:101BC0001BFB2E804046D5E75FEA0A4007D5484612
:101BD000FEF712FB46F2B01028800020CAE7264824
:101BE000007838B14846FEF707FB46F66350288078
:101BF0000020BFE700215B460722084600F088FC72
:101C00004846FEF7F9FAFFF7BBFCFEF7F1FA80460B
:101C1000396891F8350068B101281ED0032823D017
:101C200046F62E6028803868C46C4046FEF7E4FA19
:101C300020469FE77CB1886C2060FEF7A1FC01463E
:101C40003868826C891AC0F8A010D0F8A4208A42A3
:101C500001D2C0F8A4102E80E5E70CB1886C20609A
:101C600046F2A9102880DEE704B1266047F2D920A9
:101C70002880D8E7F40000208C00002070B50646CC
:101C80000C461546002C07D0B4F5004F04D045F69D
:101C900025602880002070BDFEF772FC02462B46AE
:101CA00021463046BDE8704001F07EB92DE9F0478D
:101CB0000646884691461F4646F2D520B8F1000FE9
:101CC00006D0B9F1000F06D0FEF792FA2EB106E069
:101CD0003880BDE8F0873880FBE718490E684FF080
:101CE000000A316841B196F84410C9070ED0FEF7DA
:101CF00083FA0024756A15E0FEF77EFAC8F800A0A2
:101D0000C9F800A047F252103880E2E7FEF774FAF3
:101D1000C8F800A0C9F800A047F254103880D8E7EE
:101D20002D1D641C28680028FAD0C8F80040306CCB
:101D3000001BC9F80000A7F800A0CAE7F4000020C3
:101D400030B5DDE9035402EB850222F007022C3A9C
:101D50004FF08075956250623A4810624FF0123031
:101D6000D0614FF0033090614FF002305061136149
:101D7000D1604FF0113090604FF0103050604FF054
:101D8000093042F804094FF008301060101F4FF07E
:101D9000073101604FF0063140F8041C4FF0053167
:101DA00040F8081C0C384FF004310160610747D53A
:101DB00069008038C1672449816724494167244903
:101DC00001672449C1662449816624494166244942
:101DD00001662449C1652449816524494165244936
:101DE00001652449C164244981642449416424492A
:101DF00001644FF08341C1632249816322494163F9
:101E0000224901632249C162224981622249416219
:101E1000224901624FF08241C1612149816121491A
:101E20004161214901614FF08141C1601F498160D9
:101E3000090241604FF07E5140F804190021016011
:101E400030BD0000912F00080000F8410000F04173
:101E50000000E8410000E0410000D8410000D0410E
:101E60000000C8410000C0410000B8410000B0417E
:101E70000000A8410000A0410000984100009041EE
:101E800000008841000070410000604100005041A6
:101E9000000040410000304100002041000010419E
:101EA0000000E0400000C0400000A04000004040B2
:101EB000044A904203D147F25B100880704701F05A
:101EC000CFB80000142C002070B5184D286890F889
:101ED0004410490702D50068FEF7C8F9144C206881
:101EE00090F84410490702D50068FEF7CCF9114874
:101EF000006800B18047FEF743FB296823689942D8
:101F000007D090314A68821A0A608C6822448A603D
:101F10009039C3F89400084AD1F8B0301068834271
:101F200001D2C1F8B0000020106070BDF4000020A4
:101F3000F80000204C000020880000202DE9F0412E
:101F400006460D4614461A480078002804D046F686
:101F500063502080BDE8F0814DB1022D07D0042DE3
:101F600006D0082D03D045F625602080F2E786B123
:101F7000FEF73EF907462A460E4D234631462868AD
:101F800001F00AF9208840B13846BDE8F041FEF77B
:101F900033B947F27E202080DCE7286800F0C6FCD9
:101FA0003846FEF729F9FFF7EBFA00202080D1E749
:101FB0008C000020F40000202DE9F0471646DDE9F2
:101FC0000824454D2D78002D04D046F6635020801E
:101FD000BDE8F08702F00E0547F27E2C45F6256835
:101FE00045B1022D06D0042D08D0082D02D0A4F84A
:101FF0000080EDE713B90EB901B920B132F01E0728
:1020000004D0012703E0A4F800C0E1E70027012F76
:102010000FD0C2F3001247F2792847F278294FF423
:102020007A774AB142F20F7291421BD9A4F800802C
:10203000CEE7A4F80080CBE7BB4203D347F27B2076
:102040002080C5E73B2E03D947F27A202080BFE7E6
:102050003B2902D9A4F80080BAE7632807D9A4F87D
:102060000090B5E7B84202D3A4F80090B0E71B4A4D
:1020700012684FF4FA78B8FBF2F843445343B3FBC9
:10208000F7F34FF461677843C1EB011100EB810076
:10209000304400FB0236DEB1FEF7AAF807462A46B6
:1020A0000F4D23463146286801F076F8218821B18A
:1020B0003846BDE8F047FEF79FB8286800F036FCC8
:1020C0003846FEF799F8FFF75BFA002020807FE79B
:1020D000A4F800C07CE700008C000020B84800088D
:1020E000F400002008B500F01DF86A4600210948F8
:1020F000FFF7C4FD08490868401E0860002807D1A2
:102100000648006808606A4600210548FFF7B6FDEA
:1021100008BD0000A0300020F0000020EC000020EE
:102120009031002002480068002800D00047704726
:10213000500000202DE9F05F0446DDE90BAB0A9E5C
:102140000D9D894617469846002C08D0012E11D0C7
:10215000022E08D045F625602880BDE8F09F45F6A0
:10216000C3502880F9E7B8F1000F04D147F240309E
:102170002880F2E7FFB101F04BFA012084F8260035
:102180000F482060C4F80490E7610027A761C4F8F5
:102190002080A684C4F808A0C4F80CB02761676149
:1021A000204601F097F907490888401C088001F093
:1021B000A1FA2F80D1E747F23F302880CDE7000019
:1021C000544D5220E000002070B504460D46002C0E
:1021D00008D026492068884209D045F6C450288096
:1021E000002070BD47F242302880002070BD94F876
:1021F000260078B30026012811D0022806D0032833
:102200000DD047F241302880002070BDFDF7F0FF6F
:10221000E169A161FDF7F0FF2E80012070BD01F0A2
:10222000F7F9022084F82600E06980B1A061104926
:10223000104A086878B12061666144610C601088BA
:10224000401C108001F056FA2E80012070BD206ADB
:10225000A061ECE705E0266166610C60012010805A
:10226000F0E747F23D302880002070BD544D5220E9
:10227000DC000020D800002010B5FDF7B9FF064AA9
:102280001178491C1170FDF7B7FFFFF72BFFBDE870
:102290001040FEF7A7BF0000580000204FF0E021DB
:1022A000401E4861064A106820F07F4010600869AF
:1022B00040F005000861086940F0020008617047BD
:1022C00020ED00E070470000034A00211160034A3E
:1022D00011800180704700005C0000206000002039
:1022E000074C084DFDF784FF2168491C21602968CF
:1022F000491C2960FDF780FFFEF79CFEF2E7000015
:10230000540000209C00002000B589B00D4A002137
:1023100011600B22CDE9061208900C4A05910A487B
:102320000B4B126800681B68CDE90132CDE903014F
:102330003F2000900023074A07A10C48FFF798FAB6
:1023400009B000BD540000208C48000888480008EF
:1023500084480008E122000875432F4F532D494956
:10236000492049646C65205461736B00142C002073
:10237000034A00211160034A118001807047000068
:102380006400002068000020F0B5174E3168002975
:102390000BD0164F398861B13168326810323B88F2
:1023A0005B1E9DB2002300240FE045F21E710180E8
:1023B000F0BD45F21D710180F0BD0A604C600C81DA
:1023C000CC60103110325B1C9BB2AB42F5D30C6079
:1023D0004C600C81CC60064932680A603A888A8079
:1023E000CC800C810480F0BD9C480008984800080F
:1023F000D42C002010B54289002A12D003680A4963
:102400000C681C6043680B60CB8844891B1BCB8025
:102410008B88448923448B80002141818181016024
:102420004160104610BD0000D42C00200181002125
:1024300041818181016041607047000006A1C16156
:1024400000224261054B1968002903D0816148616F
:10245000186070478261FBE7200000006C000020DC
:10246000C26B0A62C1637047F8B50746FC6B1EE099
:10247000256AFEF785F80346E3622146384600F0F8
:102480002FF804F108000189A1B10068866867622D
:10249000012084F8280021463046FFF7E1FF009331
:1024A00000231A463146204600F025F92C46002C20
:1024B000DED1F8BD002084F828006062F6E73F21F5
:1024C0003C3008E082682AB1926892F837208A424C
:1024D00000D21146203000680028F3D1084670472A
:1024E0003C3001E002F1200002688A42FAD1016822
:1024F000096A016070470000034A00211160034A25
:1025000011800180704700006C00002070000020E6
:102510002DE9F0410C4607461946104D286880F811
:102520003420002680F8356000F0C6FB64B104F169
:102530000806FC6001223946286800F011F8394687
:10254000304600F07AF803E02868A0F84660066399
:1025500020462968BDE8F04100F016B8F4000020DC
:1025600010B5A0F8462001630024002309E04B6069
:102570000B600B614B610B83CB6188602031641C65
:10258000A4B29442F3D310BD002809D04268C1F828
:10259000BC2000F1080109688968096AC1617047B7
:1025A00091F83400022805D0072807D005A0C1F80B
:1025B000BC00704704A0C1F8BC00704704A0C1F87B
:1025C000BC007047200000005461736B2051000074
:1025D0005461736B2053656D0000000007A2C1F8C1
:1025E000BC2000F108010968002903D08968096A44
:1025F000C161704701A1C161704700002000000067
:1026000070B5056BB0F846400FE0EE6808363089CB
:10261000012807D92946304600F052F829463046AD
:1026200000F00BF82035641EA4B2002CEDD170BD73
:102630000021016041600181704730B58A6892F8DD
:10264000374002890025002A03D0521C028102680B
:102650000CE0012202814D600D600160416030BDDF
:10266000936893F83730A34202D85268002AF7D112
:1026700032B1136853B10B604A605960116030BDCC
:102680004D6042680A605160416030BD11600D606C
:102690004A60016030BD70B50646356BB6F84640FD
:1026A00007E0E8680830294600F00AF82035641E83
:1026B000A4B2002CF5D10020A6F84600306370BD0E
:1026C00010B502890024012A0BD00A6862B14B6858
:1026D00073B153601A600289521E02814C600C6013
:1026E00010BD04604460F6E74A6814600260F2E7D7
:1026F00054604260EFE7F8B5064606980C460025A0
:1027000094F8361008292AD2DFE801F029290404B8
:1027100029292A2A94F83410032910D0A265A4F894
:102720005C30A06436B12046FFF7B5FF2146304645
:10273000FFF754FF94F83600032806D008E0009015
:102740002146304600F030F8ECE7204600F06AFD04
:10275000204600F099F83434A57065702570F8BDF6
:1027600094F83410032910D0A265A4F85C30A0645A
:1027700036B12046FFF78FFF21463046FFF72EFF88
:1027800094F83600072806D008E00090214630462D
:1027900000F00AF8ECE7204600F044FD0420343451
:1027A000A07065702570F8BD70B5049D0C6BB1F814
:1027B00046100AE0E668864204D120616261238304
:1027C000E56170BD2034491E89B20029F2D170BD87
:1027D00010B50024064802E02034E4B2001D016870
:1027E0000029F9D00068FDF70EFD2044C0B210BDED
:1027F000300000200020044A002142F82010401C34
:102800000228FAD37047000030000020410900F090
:102810001F020120C2F11F029040034B53F82120F8
:10282000024343F82120704730000020410900F0A6
:102830001F020120C2F11F029040034B53F82120D8
:10284000824343F82120704730000020034A0021D2
:102850001160034A11800180704700007800002059
:102860007C0000200020074B002200EB400103EB1E
:1028700081010A810A604A60401CC0B24028F4D33A
:1028800070470000E02C002010B5044694F8370093
:10289000FFF7BCFF074994F837000978884204D154
:1028A0002046BDE8104000F025B82046BDE81040A5
:1028B00000F002B87200002090F837100C4A01EBCB
:1028C000410102EB810100230A89002A08D0521C31
:1028D0000A810A68C26003610A6810610860704773
:1028E00001220A81C36003610860486070470000EC
:1028F000E02C002090F837100B4A01EB410102EB6D
:10290000810100230A89002A07D0521C0A81C36072
:102910004A680261D0604860704701220A81C36042
:102920000361086048607047E02C002070B50446E1
:10293000124994F8370000EB400001EB8001206958
:10294000E2680025002808D00B895B1E0B81C2605D
:1029500092B110612561E56070BD2AB10889401E01
:10296000088115610A60F5E70D810D604D6094F8EE
:102970003700FFF75BFFEDE74860EBE7E02C002056
:1029800010B504480078012803D1FDF7F9FD02498C
:10299000086010BD8C0000208000002010B50A489F
:1029A000007800280ED1FDF7EBFD08490968401AB0
:1029B00007490A68824200D2086006490A688242D2
:1029C00000D2086010BD00008C00002080000020B4
:1029D0008400002088000020034A00211160034A7F
:1029E00011800180704700009000002094000020BA
:1029F0001CB5724E724D3068440004E0204601AAB6
:102A00000021FFF79BFA28780128F7D101A8FEF7EB
:102A100075FE4FF0000A6B4832680168914203D995
:102A200001683268B1FBF2FABAF1000F03D1006815
:102A30000A21B0FBF1FADFF890B14FF47A7842F254
:102A400010764FF00009A4E06048824202D230467E
:102A5000012113E05E48824202D240460A210DE085
:102A60005C48824202D26420642107E05A488242D4
:102A700002D20A20414601E001203146B2FBF1F1C9
:102A80005843B0FBF1F0301A80B2ABF80000534964
:102A90000A88824203D2088001E0ABF80060FEF7AA
:102AA000DFFE0027FDF7A4FB4D4C2568FDF7A4FBD6
:102AB0000FE0FDF79DFB55F8981F6960C5F8009081
:102AC000FDF79AFB68680744FDF792FB2D6AFDF756
:102AD00093FB002DEDD1E7B13C48874202D2354649
:102AE000012013E03A48874202D245460A200DE011
:102AF0003848874202D26425642007E0364887427E
:102B000002D20A25404601E001253046B7FBF0F726
:102B100001E000250127FDF76BFB2468FDF76CFB46
:102B20001DE0D4F89C006843B0FBF7F080B2B042DF
:102B300000D93046A4F88800B4F88A10814201D246
:102B4000A4F88A0004F1A80201AB111D2046FFF78A
:102B5000ADF8FDF74DFBD4F8B840FDF74DFB002C68
:102B6000DFD120480178012904D180F8009001A824
:102B7000FEF7C4FDFDF704FD01460098081A1A4946
:102B80000A68824200D2086001AA00215046FFF77D
:102B9000D5F9FDF7F5FC0090FDF72AFB1349144C1D
:102BA0000A682260C1F80090FDF726FB11482368EF
:102BB00002689A427FF671AF46E70000A448000819
:102BC000A8000020B848000898000020801A0600DD
:102BD00000093D00005A62020084D7179A000020C5
:102BE000B400002096000020AC0000209C000020D3
:102BF000A4000020A000002030B589B01D4A0021AB
:102C000011601D4A11601D4A11601D4A11701D4A54
:102C100011701D4A1368002B0AD01C4C1C4D2368F0
:102C20002D68AB4208D246F62C61018009B030BD58
:102C300046F62B610180F9E7164B1D783F2D03D333
:102C400046F62A610180F1E70325CDE906150890D3
:102C500005911148246812680068CDE90341CDE967
:102C600001201878009000230C4A0DA11148FEF7AE
:102C7000FFFDDBE79C000020A4000020A000002056
:102C8000A800002096000020A8480008B0480008CE
:102C9000B4480008A0480008AC480008F129000822
:102CA00075432F4F532D4949492053746174205463
:102CB00061736B00E02F002010B50446002908D096
:102CC0000A462146074800F02BFA032084F8360014
:102CD00002E0022084F836002046BDE81040FFF7ED
:102CE00025BE0000CC0000202DE9F04104460E4630
:102CF000002594F8377094F8360008284FD2DFE8A2
:102D000000F004181B1B18181B1B2046FFF70EFEB3
:102D100084F837603046FFF779FD22480068844226
:102D200003D12046FFF7C8FD36E02046FFF7E2FD5D
:102D300032E084F837602FE084F8376094F834008C
:102D4000072829D2DFE800F028042804080404003A
:102D50002046FFF755FC1FE02046FFF751FC206B93
:102D6000C068456AB74205D995F83700B04213D814
:102D7000002511E095F83700B8420DD12846FFF73D
:102D80009EFB95F83810814200D20846064695F819
:102D90003700B04200D100252C46002CA8D1BDE858
:102DA000F0810000F40000200023C0F8B430064A8F
:102DB0001168002905D0C0F8B810C1F8B40010603F
:102DC0007047C0F8B830FAE7B4000020D0F8B4205B
:102DD000D0F8B8100023002A08D079B1C2F8B81092
:102DE000C1F8B420B430436003607047064A1160F4
:102DF00009B1C1F8B430C0F8B8307047C2F8B83083
:102E0000C0F8B43070470000B4000020044A00212C
:102E10001160044A1180044A11600180704700006B
:102E2000B4000020B8000020B000002070B50446B7
:102E300000252560A5606560E56025616561A56187
:102E4000E56121A020626562A562E562A564A565D1
:102E5000A4F85C50002104F16000FFF7E7FA256751
:102E60006567E567A4F88450C4F88050002004EB3F
:102E700080018D67401CC0B20028F8D03434A561B1
:102E8000E5662567E56084F85250A5676567258289
:102E9000E5612562A4F85450A4F85650A565E5658F
:102EA000FDF76EFB20666566E56725706570A570A9
:102EB0004020E0702071A560C4F88050C4F88450B0
:102EC00003A0C4F8880070BD3F5461736B0000001C
:102ED0002000000070B504460D46FDF789F906464E
:102EE0000021298094F83600082849D2DFE800F054
:102EF000040404040B1B29373046FDF77DF947F223
:102F00005310288038E094F88600401EC0B284F840
:102F1000860020B984F836102046FFF7B5FC30460D
:102F2000FDF76AF928E094F88600401EC0B284F8E4
:102F3000860010B9012084F836003046FDF75CF9B0
:102F40001AE094F88600401EC0B284F8860010B9DA
:102F5000022084F836003046FDF74EF90CE094F874
:102F60008600401EC0B284F8860010B9032084F8A1
:102F700036003046FDF740F9BDE87040FEF700BB73
:102F80003046FDF739F946F62D60288070BD000007
:102F900008B504480068FEF7D5FD69460020FEF735
:102FA0001BFD08BDF40000202DE9F84304468946C6
:102FB00015461E46FDF71CF907460CB9274804685C
:102FC000A5640020308094F8360046F6C5580828DD
:102FD0003BD2DFE800F00404151504041515E56C78
:102FE000681C05D06D1CE5643846FDF705F933E033
:102FF0003846FDF701F9A6F800800020BDE8F88307
:1030000094F83400072808D0E56C681C16D06D1CB5
:10301000E5643846FDF7F0F81EE000231A46214625
:1030200018460095FFF767FBE56C3846FDF7E4F8B6
:103030005FEA094010D4FEF7A3FA0DE03846FDF729
:10304000DBF8A6F800800020D8E73846FDF7D4F872
:1030500046F62D60308000252846CFE7F40000209A
:1030600070B504460D46FDF7C3F806462A4804B974
:1030700004680068844209D12848007830B130469D
:10308000FDF7BAF846F66350288070BD002028800E
:1030900094F836100120082937D2DFE801F0041037
:1030A00019222B2B2B2B042184F8361084F8860050
:1030B0002046FFF73BFC3046FDF79EF821E0052156
:1030C00084F8361084F886003046FDF795F818E04D
:1030D000062184F8361084F886003046FDF78CF817
:1030E0000FE0072184F8361084F886003046FDF79B
:1030F00083F806E014F8860F401C20703046FDF778
:103100007BF8BDE87040FEF73BBA3046FDF774F837
:1031100046F62D60288070BDF40000208C00002051
:1031200030B503680025002B01D01C4629E00A6554
:103130004D618D61C86101600121818030BD1C6DD0
:1031400094421BD39C6964B10A658C614B61C86170
:103150001D6DAA1A1A65996161618188491C818077
:1031600030BD0A658D614B61C8611C6DA21A1A657C
:10317000996101608188491C818030BD121B1C4609
:103180005B69002BDBD10A658C614D61C8616161AF
:103190008188491C818030BD2DE9F0411C461F4BC0
:1031A000DFF8748000271B6847F27E2C042A04D0C5
:1031B000082A0BD059B30A4616E0CA1A424500D86D
:1031C00092B90765A4F800C0BDE8F081456D5E1BAB
:1031D0008E4203D90A461944416505E08A1B4245DF
:1031E0000BD852B129444165012180F836100146BF
:1031F0000B48FFF795FF2780E6E7B6FBF1F201FBEE
:103200000252114441650765A4F800C0DCE7076578
:10321000A4F800C0D8E700000000FFFFBC000020B9
:10322000C400002030B5C269836941690024002BC5
:103230000ED0596121B18B610B6D056D2B440B656F
:1032400084619188491E918044610465C46130BDE8
:1032500061B18C610B6D056D2B440B65116091881C
:10326000491E918044610465C46130BD146094803E
:103270000465C46130BD70472DE9F047FCF7B8FF25
:103280008146FDF77DF980460026184D2C6804B371
:10329000206D401E2065002718E0761CB6B294F819
:1032A0003600012802D0052806D008E084F83670E0
:1032B0002046FFF7E9FA02E0042084F8360064694A
:1032C0002C608CB1A888401EA880A761206D0028C2
:1032D000E3D0EE80FDF754F9A0EB08044846FCF774
:1032E0008BFF2046BDE8F087AF80F2E7C4000020E6
:1032F0002DE9F047FCF77CFF8246FDF741F9814656
:103300000027334E3468E4B3206D401E2065B84674
:103310004DE07F1CBFB2002594F83400042802D190
:10332000206BC068456AC4F85880A4F85C80FDF73B
:1033300027F9A0642046FFF7AEF994F83600032879
:1033400002D0072806D008E02046FFF79DFA84F84F
:10335000368002E0042084F83600032084F835002B
:1033600084F83480DDB195F8370095F8381088423C
:1033700015D094F83710884211D12846FFF79FF8EE
:1033800000E017E095F83810814200D20846014667
:1033900095F83700884202D02846FFF7A5FC6469FB
:1033A000346094B1B088401EB080C4F81880206D9D
:1033B0000028AED0F780FDF7E3F8A0EB09045046F3
:1033C000FCF71AFF2046BDE8F087A6F80480F1E775
:1033D000CC00002008B50F4C0F4D00226B46114663
:1033E0001046FEF7B7FBBDF800000028F5D1FCF74A
:1033F000FFFE2168491C2160FCF7FEFEFFF73CFF41
:103400000646FFF775FF304429688142E5D22860FF
:10341000E3E70000BC000020C000002030B589B008
:103420001D4A002111601D4A11601D4B19609180D9
:10343000D1809980D9801B4B1A68002A0AD01A4C77
:103440001A4D22682D68AA4208D247F21321018042
:1034500009B030BD47F212210180F9E7144A15780E
:103460003F2D03D347F211210180F1E70B25CDE970
:1034700006150591089020680E4C1B682468CDE95C
:103480000134CDE903011078009000230A4A0BA112
:103490000F48FEF7EDF9DBE7BC000020C400002078
:1034A000CC000020C0480008C8480008B448000804
:1034B000BC480008C4480008D533000875432F4FA6
:1034C000532D494949205469636B205461736B0043
:1034D000A030002000238362044A1168002903D031
:1034E000C162886210607047C362FBE7D4000020AD
:1034F00030B589B004462B48002505602A48056090
:103500002A4805802A4A2B492B481368002B05D0EE
:1035100009681268B1FBF2F1016004E009680A224F
:10352000B1FBF2F10160254900680860244805609C
:1035300024480560224624A12748FDF7A9FE2088DB
:1035400000280BD12548016851B1254A254B116847
:103550001B68994208D247F24830208009B030BD3C
:1035600047F247302080F9E71F490B783F2B03D300
:1035700047F246302080F1E70B23CDE9065305954D
:1035800008941A4B126800681B68CDE90325CDE941
:103590000103087800900023154A16A11B48FEF786
:1035A00067F9DBE7D4000020DC000020D800002011
:1035B000D0480008B8480008EC000020F0000020C7
:1035C000E8000020E40000204F5320546D72204D8D
:1035D000757465780000000060310020D448000850
:1035E000DC480008B4480008CC480008D848000867
:1035F0002D36000875432F4F532D494949205469F2
:103600006D6572205461736B0000000090310020E2
:103610000EB502A80022009001AB11460148FDF74B
:1036200063FE0EBD60310020704700001CB51F4EC8
:10363000DFF87C801F4F002101AB6A460846FEF789
:1036400089FAFFF7E5FFFCF79BFF81463068401CD5
:103650003060D8F8004019E001A8FDF7CFFF2569D8
:10366000A069401EA06168B9A08C02281BD020462A
:1036700000F022F8032084F82600A26812B1204648
:10368000E16890472C4601A8FDF7DCFF002CE3D150
:10369000FCF776FFA0EB090400F02CF83868A04294
:1036A000C9D23C60C7E7206AA061E6E7E8000020D5
:1036B000DC000020E400002010B50C4A0023016962
:1036C0001468844203D1116029B14B6103E042695F
:1036D000116101B14A61012180F826100361436143
:1036E00003480188491E018010BD0000DC00002055
:1036F000D800002008B56A4600210248FDF7A0FE68
:1037000008BD000060310020054A002903D011687F
:1037100001431160704711688143116070470000D8
:1037200030380240054A002903D011680143116076
:1037300070471168814311607047000044380240AF
:1037400070B5244B196801F00C01234C00291ED0E0
:10375000224E04291DD008291DD00460196801F0EB
:10376000F00109091E4A545C0168E14041601C688F
:1037700004F4E054A40A145D21FA04F484601B6884
:1037800003F460435B0BD25CD140C16070BD046048
:10379000E4E70660E2E70F4A121F1168C1F38055A3
:1037A000116801F03F0135B1B6FBF1F11468C4F3C3
:1037B0008814614305E0B4FBF1F11468C4F3881484
:1037C00061431268C2F30142521C5200B1FBF2F194
:1037D0000160C3E7083802400024F40040787D010E
:1037E00000000020704700000CB5002201920092FA
:1037F0002749086840F4803008604FF4A043086807
:1038000000F4003000900198401C0190009810B91D
:1038100001989842F3D10868800302D501200090F6
:1038200000E000920098012831D119484030026828
:1038300042F0805202601748026842F4404202603F
:103840001348083002680260026842F400420260D5
:10385000026842F4A0520260021F0F4B13600A6814
:1038600042F080720A600A689201FCD50B4A40F26D
:1038700005711160016821F003010160016841F0E8
:10388000020101600168C1F381010229FAD10CBD76
:10389000003802400070004019544007003C0240CC
:1038A00010B51248016841F47001016010480168C8
:1038B00041F0010101600E4A0021083211600268E6
:1038C0000C4B1A400260031D0B4A1A60026822F476
:1038D0008022026006480C300160FFF785FF034933
:1038E0004FF000608039086010BD000088ED00E0F6
:1038F00000380240FFFFF6FE1030002410B50F4CD8
:1039000040F22551204600F032F8002815D0FDF78E
:1039100059FC204600F0C4F80A4A094B1178585463
:10392000491CC8B210700C2803D30020107001206D
:103930005070BDE81040FDF755BC10BD00100140AF
:103940000412002010000020002904D0818941F4D5
:10395000005181817047818921F400518181704734
:103960000246002012880A4200D00120704770B53C
:10397000002440F66A12C1F3421301F01F0501262C
:1039800006FA05F2012B0CD0022B0DD0838A1340CE
:10399000090A8E40008830400BB100B10124204656
:1039A00070BD83891340F3E7038A1340F0E710B535
:1039B00040F66A13C1F3421301F01F040121A14034
:1039C000012B07D0022B07D014303AB102680A430A
:1039D000026010BD0C30F8E71030F6E702688A4349
:1039E000026010BD7FB504460D46208A20F4405188
:1039F000E88808432082A08941F20C618843A988A5
:103A00002A8911436A8902431143A181A08A20F4C3
:103A10004071A8890843A0826846FFF791FE1E48BE
:103A2000844202D01D48844201D1039800E00298EC
:103A3000A189090408D500EBC00101EB0010296839
:103A40004900B0FBF1F007E000EBC00101EB001012
:103A500029688900B0FBF1F06422B0FBF2F10901A2
:103A60000B096FF018056B4300EB8300A3891D045D
:103A70004FF0320307D503EBC000B0FBF2F000F0CB
:103A80000700084306E003EB0010B0FBF2F000F083
:103A90000F00084320817FBD001001400014014049
:103AA0008088C0F308007047C1F308018180704727
:103AB000FEE700000FB4054B10B503A9044A0298B5
:103AC00000F018F810BC5DF814FB0000393E000847
:103AD0000001002002E008C8121F08C1002AFAD124
:103AE00070477047002001E001C1121F002AFBD17E
:103AF000704700002DE9FF4F8BB088460546002631
:103B000006E025280BD0DDE90D1290476D1C761CD0
:103B100028780028F5D10FB03046BDE8F08F00249A
:103B2000A146A2460122AE4900E0044315F8013F38
:103B3000203B02FA03F00842F7D128782A2810D057
:103B40006FF02F022878A0F13001092915D809EB70
:103B5000890102EB410144F0020400EB01096D1CF4
:103B6000F0E758F8041B5FEA010903D544F4005458
:103B7000C9F1000944F002046D1C28782E2817D1E1
:103B800015F8010F44F004042A280ED06FF02F021C
:103B90002878A0F1300109290AD80AEB8A0102EB42
:103BA000410100EB010A6D1CF2E758F804AB6D1CF3
:103BB00028786C280FD006DC4C2817D068280DD048
:103BC0006A2814D104E0742810D07A280FD10DE0AF
:103BD00044F400140AE044F4801401E044F4401476
:103BE0006978814202D104F580146D1C6D1C28781F
:103BF000692865D006DC00288DD0632827D064288A
:103C000006D15DE06E2808D073282AD0752877D0B9
:103C1000DDE90D129047761CE0E0C4F30250022863
:103C200009D003280DD0D8F8001004280DD00E605C
:103C300008F10408D2E0D8F80010F217C1E90062D8
:103C4000F6E7D8F800100E80F2E70E70F0E718F8EB
:103C5000041B8DF8001000208DF80100EB460120B8
:103C600003E058F804BB4FF0FF3061074FF0000746
:103C700001D40AE07F1C57450DDA8742FADB1BF8B6
:103C800007100029F6D106E07F1C8742FCDB1BF8F9
:103C900007100029F8D1DDE90D23A9EB07008146C3
:103CA000214600F0B1F83044C61904E0DDE90D12F8
:103CB0001BF8010B90477F1EF8D22146484688E04A
:103CC00058F8040BC4F302514FF00A0B032900D13A
:103CD00000B2042900D140B2002802DA40422D216E
:103CE00002E0210505D52B218DF82410012104E0E7
:103CF00006E0E10710D02021F6E708AF089113E0B5
:103D000058F8040BC4F302514FF00A0B032900D1F9
:103D100080B2042900D1C0B20021EEE75946FCF779
:103D20007DFA303107F8011D0028F7D1ADEB07000F
:103D300000F1200B600702D524F4803401E04FF03D
:103D4000010ADA4502DDAAEB0B0000E00020824602
:103D500000EB0B0108980144A9EB01000A90E00375
:103D600006D4DDE90D2321460A9800F04DF80644FB
:103D70004FF0000908E009A911F80900DDE90D126A
:103D8000904709F10109761C08998945F3DBE003A6
:103D90000CD5DDE90D2321460A9800F035F80644DC
:103DA00004E0DDE90D1230209047761CBAF10001E5
:103DB000AAF1010AF5DC05E0DDE90D1217F8010BA7
:103DC0009047761CBBF10001ABF1010BF4DC0A98C3
:103DD0002146DDE90D2300F005F806446D1C97E649
:103DE000092801002DE9F041044600251E4617462A
:103DF000880404D405E039462020B0476D1C641EB9
:103E0000F9D52846BDE8F0812DE9F04104460025AA
:103E10001E469046C80301D5302700E020278804BD
:103E200004D505E041463846B0476D1C641EF9D5FF
:103E30002846BDE8F081000070B50446064DE1B2A9
:103E40002846FFF731FE80212846FFF789FD00282C
:103E5000F9D0204670BD0000001001401FB50A25B2
:103E600040F2255ADFF8C8B140F24657714C4FF086
:103E700008080DF10C09FCF7BBF90290FCF7B0FC47
:103E80000146A088A0810D2913D2DFE801F0810747
:103E900013202E3B49586673BF8CAC00E188B0FB01
:103EA000F1F2B2FBF5F305FB132202FB110008440B
:103EB000A081ABE0E188B0FBF1F2B2FBF5F305FBCA
:103EC000132202FB110000EB4100A0819EE0E1887B
:103ED000B0FBF1F2B2FBF5F305FB132202FB11007C
:103EE00001EB41010844A08190E0E188B0FBF1F2D0
:103EF000B2FBF5F305FB132202FB110000EB81007E
:103F0000A08183E0E188B0FBF1F2B2FBF5F305FBA1
:103F1000132202FB110001EB81010844A08175E02E
:103F2000E188B0FBF1F2B2FBF5F305FB132202FBD3
:103F3000110001EB410100EB4100A08166E0E18846
:103F4000B0FBF1F2B2FBF5F305FB132202FB11000B
:103F5000C1EBC1010844A08158E0E188B0FBF1F257
:103F6000B2FBF5F305FB132202FB110000EBC100CD
:103F7000A0814BE0E188B0FBF1F2B2FBF5F305FB69
:103F8000132202FB110001EBC1010844A0813DE0B6
:103F9000E188B0FBF1F2B2FBF5F305FB132202FB63
:103FA0001100A08132E0216949422161491C14D0ED
:103FB0004FF47A76B0FBF6F106FB11011EA0FFF775
:103FC00079FDA088B0FBF6F11DA0FFF773FD01227B
:103FD00051465846FFF7EBFC18E000225146584680
:103FE000FFF7E5FC12E0E0884FF6FF7100EB800080
:103FF00001EA4000E080A178491EA170A0F51C51A3
:10400000103903D10120E0800420A070A089B842BB
:1040100000D3A781A089A080002232231146104638
:10402000CDE90089FDF7C8FF0298FCF7E5F822E723
:104030000010014010000020253033640000000013
:10404000253031640000000008B5114C0F4D4027A9
:104050004FF08008A6156889A988884204D967832B
:10406000A4F81880268309E004D22783A4F81880D6
:10407000668303E02783A4F81A8026836A464FF0FC
:1040800000014FF06400FDF759FFE4E71000002045
:104090000000024000B58BB00AA8FCF7D3FF002057
:1040A0000AA903220590CDE9072106900C220B4BAB
:1040B000CDE9013205208021CDE9031002200090D6
:1040C00006480023064A07A1C038FDF7D1FB0AA81D
:1040D000FDF7E6FA0BB0002000BD0000C40100208F
:1040E00079030008417070205461736B2053746130
:1040F000727400000EB5284C02AD082648E001217C
:1041000026A20846FCF748FF27A201210220FCF75F
:1041100043FF28A201210320FCF73EFF27A2012133
:104120000420FCF739FF0423628906210220FCF7F2
:1041300013FF0423228906210320FCF70DFF04232B
:10414000A28806211846FCF707FF19E001211DA2ED
:104150000846FCF721FF1EA201210220FCF71CFFEC
:104160001EA201210320FCF717FF14A20121042045
:10417000FCF712FF0423A28906211846FCF7ECFE87
:104180000022CDE90065322311461046FDF714FFE9
:1041900020690128DAD1B2E71000002052554E4EB6
:1041A000494E47202020000050563A202020202051
:1041B0002020200052543A202000000053563A207C
:1041C0002000000053455454494E47202020000051
:1041D00052473A302D313335302043002020202003
:1041E000202020202020000010B5FCF701F8BDE8B9
:1041F0001040FCF701B8000070B5184C2069012888
:1042000008D0A078BDE87040401DC1B214A20420BF
:10421000FCF7C2BEFBF7ECFF05466078012818D119
:104220000020607008210F4800F01EF8A0810421D2
:104230000C4800F019F8608100210A4800F014F8D9
:104240002081A18940F24650814200D3A081A089FB
:10425000A0802846BDE87040FBF7CEBF10000020CC
:10426000200000000412002070B504460020302217
:10427000CD1C0BE0635C00EB8000B3FBF2F602FBAD
:10428000163303EB400080B2491CC9B2A942F1D9F0
:1042900070BD0000000000000000000000000000F1
:1042A0000000000000F800000000000000333000B3
:1042B000000000100C06100C0600000000000000BA
:1042C000000040C07840C0784000043F04043F0430
:1042D0000400007088FC08300000001820FF211E38
:1042E0000000F008F000E018000000211C031E216F
:1042F0001E0000F00888700000001E2123241927EA
:10430000211010160E000000000000000000000048
:104310000000000000E01804020000000007182060
:10432000400000020418E0000000004020180700D0
:104330000000404080F0804040000202010F010276
:104340000200000000F0000000000101011F010157
:104350000100000000000000000080B070000000BC
:104360000000000000000000000000010101010148
:1043700001010000000000000000003030000000DB
:1043800000000000000080601804006018060100B2
:10439000000000E010080810E000000F10202010BE
:1043A0000F00001010F8000000000020203F202027
:1043B00000000070080808887000003028242221BE
:1043C0003000003008888848300000182020201174
:1043D0000E000000C02010F8000000070424243F55
:1043E000240000F8088888080800001921202011FE
:1043F0000E0000E0108888180000000F1120201126
:104400000E0000380808C83808000000003F00000F
:1044100000000070880808887000001C22212122FA
:104420001C0000E010080810E000000031222211FA
:104430000F00000000C0C00000000000003030008D
:10444000000000000080000000000000806000000C
:104450000000000080402010080000010204081045
:104460002000404040404040400004040404040454
:104470000400000810204080000000201008040202
:104480000100007048080808F00000000030360104
:104490000000C030C828E810E000071827242314C3
:1044A0000B000000C038E0000000203C230202277F
:1044B000382008F8888888700000203F20202011CC
:1044C0000E00C03008080808380007182020201007
:1044D000080008F808080810E000203F20202010FD
:1044E0000F0008F88888E8081000203F20202320CB
:1044F000180008F88888E8081000203F2000030012
:104500000000C03008080838000007182020221ECC
:10451000020008F808000008F808203F21010121E6
:104520003F20000808F8080800000020203F202055
:10453000000000000808F8080800C08080807F00A4
:10454000000008F888C028180800203F20012638FD
:10455000200008F8080000000000203F2020202054
:10456000300008F8F800F8F80800203F003F003F4E
:10457000200008F830C00008F808203F2000071885
:104580003F00E01008080810E0000F102020201065
:104590000F0008F808080808F000203F2101010179
:1045A0000000E01008080810E0000F18242438501C
:1045B0004F0008F8888888887000203F2000030C8E
:1045C0003020007088080808380000382021212297
:1045D0001C00180808F8080818000000203F2000F8
:1045E000000008F808000008F808001F202020201C
:1045F0001F000878880000C83808000007380E013E
:104600000000F80800F80008F800033C0700073C29
:104610000300081868808068180820302C03032CD9
:1046200030200838C800C83808000000203F2000AB
:10463000000010080808C83808002038262120206B
:104640001800000000FE020202000000007F40404F
:104650004000000C30C000000000000000010638DF
:10466000C00000020202FE000000004040407F0047
:10467000000000000402020204000000000000002C
:10468000000000000000000000008080808080802A
:104690008080000202040000000000000000000012
:1046A0000000000080808080000000192422222267
:1046B0003F2008F8008080000000003F11202011FA
:1046C0000E000000008080800000000E11202020DD
:1046D0001100000000808088F800000E11202010DA
:1046E0003F200000808080800000001F22222222C4
:1046F0001300008080F0888888180020203F202048
:1047000000000000808080808000006B949494936F
:10471000600008F8008080800000203F2100002019
:104720003F2000809898000000000020203F2020BB
:104730000000000000809898000000C08080807F0A
:10474000000008F8000080808000203F24022D3007
:104750002000000808F8000000000020203F202072
:1047600000008080808080808000203F20003F20EB
:10477000003F8080008080800000203F21000020DA
:104780003F200000808080800000001F202020202B
:104790001F00808000808000000080FFA120201189
:1047A0000E000000008080808000000E112020A0FC
:1047B000FF80808080008080800020203F212000BA
:1047C00001000000808080808000003324242424A5
:1047D0001900008080E0808000000000001F202081
:1047E00000008080000000808000001F202020103A
:1047F0003F20808080000080808000010E3008060D
:10480000010080800080008080800F300C030C301D
:104810000F0000808000808080000020312E0E314B
:104820002000808080000080808080818E7018064B
:10483000010000808080808080000021302C2221B7
:10484000300000000000807C020200000000003FF9
:10485000404000000000FF00000000000000FF00DA
:1048600000000002027C800000000040403F000089
:104870000000000601010202040400000000000024
:1048800000000000941E0020060000004000000010
:10489000941F002064000000640000002421002018
:1048A0000B0000000A000000642700200A0000003E
:1048B0006400000040000000E80300000100000068
:1048C000F42800200A000000640000000B00000033
:1048D0000A000000842A00200A0000006400000092
:1048E000004900080000002004010000D43A00083C
:1048F000044A0008040100204C350000E43A000896
:104900000000000001020304010203040607080975
:10491000000004006400010000000000000000002E
:104920000100000000000000000000000000000086
:104930000000000000000000000000000000000077
:104940000000000000000000000000000000000067
:104950000000000000000000000000000000000057
:104960000000000000000000000000000000000047
:104970000000000000000000000000000000000037
:104980000000000000000000000000000000000027
:104990000000000000000000000000000000000017
:1049A0000000000000000000000000000000000007
:1049B00000000000000000000000000000000000F7
:1049C00000000000000000000000000000000000E7
:1049D00000000000000000000000000000000000D7
:1049E00000000000000000000000000000000000C7
:1049F00000000000000000000000000000000000B7
:044A000000000000B2
:040000050800018965
:00000001FF
