:020000040800F2
:10000000483000209D010008930D0008590B00089E
:10001000B50C00080D090008F93B000800000000BD
:100020000000000000000000000000002D39000862
:100030009D0900080000000045050008A5230008F0
:10004000D7010008D7010008D7010008D701000830
:10005000D7010008D7010008D7010008D701000820
:10006000D7010008D7010008D7010008D701000810
:10007000D7010008D7010008D7010008D701000800
:10008000D7010008D7010008D7010008D7010008F0
:10009000D7010008D7010008D7010008D7010008E0
:1000A000D7010008D7010008D7010008D7010008D0
:1000B000D7010008D7010008D7010008D7010008C0
:1000C000D7010008D7010008D7010008D7010008B0
:1000D000D7010008453A0008D7010008D7010008F9
:1000E000D7010008D7010008D7010008D701000890
:1000F000D7010008D7010008D7010008D701000880
:10010000D7010008D7010008D7010008D70100086F
:10011000D7010008D7010008D7010008D70100085F
:10012000D7010008D7010008D7010008D70100084F
:10013000D7010008D7010008D7010008D70100083F
:10014000D7010008D7010008D7010008D70100082F
:10015000D7010008D7010008D7010008D70100081F
:10016000D7010008D7010008D7010008D70100080F
:10017000D7010008D7010008D7010008D7010008FF
:10018000D7010008D7010008DFF80CD000F070F9A3
:1001900000480047A140000848300020DFF8380040
:1001A000016841F470010160BFF34F8FDFF82C004C
:1001B000016821F040410160BFF36F8F084880471C
:1001C00008480047FEE7FEE7FEE7FEE7FEE7FEE73A
:1001D000FEE7FEE7FEE7FEE788ED00E034EF00E033
:1001E000E93900088901000872B6704762B67047A5
:1001F000EFF3108072B6704780F31088704730BFFD
:10020000704720BF7047B0FA80F0704790FAA0F0B6
:10021000B0FA80F0704790FAA0F070472DE9FE4FD9
:1002200081EA030404F0004421F0004100944FF0FF
:10023000000B23F0004350EA01045ED052EA0304AD
:100240005BD0C3F30A54C1F30A552C44A4F2F3342F
:100250000194A0FB0254C1F3130141F48011C3F3D4
:10026000130343F4801301FB024400FB034E840A92
:10027000970A44EA815447EA8357A4FB076802952A
:100280008D0A05FB07854FEA932C04FB0C542705C8
:10029000029D4FEA065847EA1637B5EB08056EEBA4
:1002A000070C870E920E47EA811742EA8312A7FBDA
:1002B0000201B6EB0B0164EB00042B0D43EA0C3397
:1002C0005E1844EB1C50DA465146E7FB0201C5F3C9
:1002D00013044FEA0B3343EA14534FEA0432019CF0
:1002E00043EA0603A4F10C040294009CCDE900B497
:1002F00000F070F803B0BDE8F08F00200146F9E788
:100300000EB540F2334102910021CDE900110A46B9
:100310000B4600F05FF803B000BDC1F30A5210B500
:10032000C1F3130140F2FF3341F480119A4201DA24
:10033000002010BD40F233439A42A2F2334203DC64
:10034000524200F028F810BD904010BD30B50B4669
:10035000014600202022012409E021FA02F59D42F5
:1003600005D303FA02F5491B04FA02F52844151EC9
:10037000A2F10102F1DC30BD202A04DB203A00FAB0
:1003800002F1002070479140C2F1200320FA03F3EC
:10039000194390407047202A04DB203A21FA02F0EA
:1003A0000021704721FA02F3D040C2F120029140AF
:1003B00008431946704710B5141E73F1000408DA9B
:1003C000401C41F1000192185B411A4301D120F019
:1003D000010010BD2DE9F04D92469B4611B1B1FAD6
:1003E00081F202E0B0FA80F220329046FFF7C4FFBB
:1003F00004460F4640EA0A0041EA0B0153465A46BA
:10040000084313D0114653EA010019D0C8F1400245
:100410005046FFF7C0FF05460E4650465946424635
:10042000FFF7AAFF084305D0012004E02046394623
:10043000BDE8F08D0020054346EAE0762C433743C3
:100440000A986305E40AA0EB08000022FD0A44EACA
:1004500047540A3002D500200146E9E7010510198A
:100460006941DDE9084500196941BDE8F04DA2E7A1
:10047000064C074D06E0E06840F0010394E80700F1
:1004800098471034AC42F6D3FFF782FE2C4900089F
:100490004C490008EFF3098141B1F1EE101A40F820
:1004A000041D20ED200A3B490A6810607047B0EC3B
:1004B000200A02C8E1EE101A37490A681060704736
:1004C00072B64EF62250CEF2000040F2FF01C0F2AA
:1004D0000001017040F20010C2F20000016881F3D7
:1004E000088840F27600C2F2000040F27701C2F2C2
:1004F00000010A78027040F2F805C2F2000540F2ED
:10050000FC01C2F200010A682A60106880F30988C1
:10051000EFF3148040F0020080F31488BFF36F8F74
:10052000BDE8F00F0FBCBDE8005006BC62B608473E
:100530001A484FF080510160704718484FF08051C1
:100540000160704772B6EFF3098020E9F00F40F2C6
:10055000F805C2F200052E683060744601F04AFDCD
:1005600040F27600C2F2000040F27701C2F20001D0
:100570000A78027040F2FC01C2F200010A682A60A7
:1005800044F0F40E1068B0E8F00F80F3098862B60A
:1005900070470000F8000020FC00002004ED00E09F
:1005A000002904D0816841F00101816070478168B1
:1005B00021F001018160704710B5074C226807499E
:1005C0000A40D0E900131943D0E90230034319432C
:1005D0001143216010BD000004230140E030FCFF06
:1005E000C06C80B270470246002012680A4200D0F8
:1005F0000120704730B542680F4B1A400C790B68E8
:1006000042EA04221343436083680C4A1340D1E951
:10061000034222434D798C6844EA450422431A433D
:100620008260C26A22F47002097D491EC9B242EAA0
:100630000151C16230BD0000FFFEFFFCFDF7FFC0AD
:1006400070B5072609290AD9C568A1F10A0404EB87
:100650004404A640B543A3401D43C56007E00569B7
:1006600001EB4104A640B543A3401D4305611F2390
:10067000072A09D2446B521E02EB820293409C432C
:1006800091400C43446370BD0D2A09D2046BD21F04
:1006900002EB820293409C4391400C43046370BD83
:1006A000C46A0D3A02EB820293409C4391400C4392
:1006B000C46270BD816841F0804181607047000074
:1006C0000849002806D0D1F8040340F40000C1F81E
:1006D00004037047D1F8040320F40000C1F80403B8
:1006E000704700000020014030B58DB00121084660
:1006F00003F0A0F801210C02204603F0A9F8022122
:100700000B9103218DF8301001258DF833500BA982
:100710001B4800F099F90121204603F0A7F80021B9
:10072000204603F0A3F80120FFF7CAFF0024079436
:100730000A9409942804089007A8FFF73DFF019444
:100740008DF808408DF80940039405948DF81850F1
:100750000C4C01A92046FFF74DFF0122072311464B
:100760002046FFF76DFF0723012210212046FFF7E7
:1007700067FF01212046FFF713FF0DB030BD0000D9
:1007800000000240002001402DE9F0438BB000F052
:10079000BEF800F0AEF800F0A5F83A490968B0FBE1
:1007A000F1F001F011FE00F08BFA0AA801F098F8C0
:1007B00035480226CDE9006000240AAD0123224617
:1007C00032A1CDE90245334801F04AFD3248012308
:1007D000CDE900602F48022230A1CDE9024530303A
:1007E00001F03EFDFFF704FD81460326CDE90646F4
:1007F0002C480190059480274FF00C080720CDE984
:10080000028700902748089504940023264A27A1D0
:10081000C03801F0C3F8CDE9064627480190059499
:100820000620CDE902870090234808950494002310
:10083000224A23A1C03801F0B1F8CDE90646234889
:10084000019005940420CDE9028700901F48089587
:10085000049400231E4A1FA1C03801F09FF80AA982
:100860000C4801F047FD0B480AA9303001F042FD69
:100870000AA91B4801F046F94846FFF7BDFC0BB03A
:10088000BDE8F08304490008F5410008746D723139
:1008900000000000080C00203D420008746D723218
:1008A0000000000048070020554000084C45442047
:1008B0007461736B00000000080A00200141000809
:1008C00053484F57207461736B0000008804002068
:1008D000A53F00084B4559207461736B0000000070
:1008E000080100201FB5684602F0CEFF019804B051
:1008F00010BD10B500F0B4F900F052F800F098F90E
:10090000FFF7F2FEBDE8104000F0ABBAFEE710B50D
:1009100000F018F8BDE8104000F010B810B5FFF76F
:1009200067FC04461021044800F0C5F92046BDE8E4
:100930001040FFF761BC0000680C0020FFF7EEBF1D
:10094000FEE7000002490020086000F009B800003E
:100950002C00002001490860704700002C00002096
:1009600010B5FFF7BFFF08490A6842F080720A60BD
:10097000064900224A600A6842F001020A60BDE8A6
:100980001040FFF7E7BF0000FCED00E0001000E0C2
:100990000148406870470000001000E07047000008
:1009A00070B586B00121084602F044FF01211020F5
:1009B00002F04EFF00248DF8164001208DF817003C
:1009C00002258DF815508DF81450400204901C4EED
:1009D00004A9304600F038F88DF8145069020491EB
:1009E00004A9304600F030F807220A21304600F012
:1009F00069F807220921304600F064F84FF4E1302D
:100A00000090ADF80440ADF80640ADF80840ADF8F0
:100A10000C400C20ADF80A000A4C6946204603F051
:100A200085F800F0B7F9012240F22551204603F085
:100A300062F80121204603F02BF806B070BD0000DB
:100A400000000240001001402DE9F0410022012782
:100A50004FF0030C07FA02F50B682B40AB422CD188
:100A6000066853000CFA03F4A64306600E79D0F82A
:100A700000809E4046EA080606600E79012E01D0ED
:100A8000022E12D18668A64386604E79D0F808807F
:100A90009E4046EA080686604668AE434660456862
:100AA0008E799640B6B235434560C568A543C560AA
:100AB000CC799C40C3681C43C460521C102AC9D323
:100AC000BDE8F08110B54B07DB0E9A40C90800EB7A
:100AD0008100016A0F249C40A1430162016A114315
:100AE000016210BD0246002012690A4200D00120B6
:100AF0007047002A01D0018370474183704700008E
:100B000010B50A4C0146072301222046FFF798FD45
:100B10002046FFF7CFFD02212046FFF764FD0028A5
:100B2000F9D02046BDE81040FFF75ABD0020014033
:100B30002DE9F04107460E460025002405E0384621
:100B4000FFF7DEFF0544641CE4B2B442F7D3B5FB03
:100B5000F6F080B2BDE8F081FEE7000070B5012537
:100B60002C4C002800D0257020782B4E98B1012104
:100B70003046FFF7B7FFA8B102213046FFF7B2FFBA
:100B800080B104213046FFF7ADFF58B1082130464F
:100B9000FFF7A8FF30B101213046FFF7A3FF01287E
:100BA00022D034E00A2000F039F800202070012122
:100BB0003046FFF797FF78B102213046FFF792FFEA
:100BC00060B104213046FFF78DFF48B1082130465F
:100BD000FFF788FF30B11AE0012070BD022070BD20
:100BE000032070BD042070BD02213046FFF77AFF5C
:100BF00001280CD104213046FFF774FF012806D1EB
:100C000008213046FFF76EFF012800D12570002033
:100C100070BD0000290000200004024001B502E080
:100C20000098401E009000980028F9D108BD0000EF
:100C30001CB50121022002F0FDFD0F2000900020D4
:100C40008DF8040003208DF8050001208DF80700C1
:100C500069460248FFF7F8FE1CBD00000004024090
:100C60002DE9FC410121084602F0E4FD40270097F0
:100C700001208DF8040000218DF806108DF8070082
:100C80008DF805100A4C69462046FFF7DDFE8026E8
:100C9000009669462046FFF7D7FEA51500956946E0
:100CA0002046FFF7D1FE278326832583BDE8FC81FC
:100CB00000000240FEE70A46002100F04BB80000A9
:100CC0000EB50C49002008600B4A02A80121CDE9AD
:100CD00000104FF4406302F5406108A000F012F8E4
:100CE000BDF80800A0F51C51103901D0FFF728FE0F
:100CF0000EBD000030000020780C002048656170B7
:100D0000000000002DE9F84F0646DDE90A950F4680
:100D100090461C46FFF76CFA82464B4642463946DF
:100D20003046009400F008F85046FFF765FA42F2AA
:100D300010702880BDE8F88F00980A601044401EAB
:100D400048608A6002480268CA600B6101607047AF
:100D50003000002010B5002300241B020B43641C4C
:100D6000042CFAD300F0030424B909E000F8011BB5
:100D7000521E641C22B1042CF8D301E008C0121FDB
:100D8000042AFBD202E000F8011B521E002AFAD10D
:100D900010BD704708B54FF4407000F045F82520AD
:100DA0008DF8000005208DF8010000208DF802006C
:100DB00001208DF80300684600F002F808BD00002D
:100DC00030B50F23C27801250178002A1FD0154ABB
:100DD000126802F4E062C2F5E062C2F30722C2F1D7
:100DE0000404D3404278A24084781C40144322017A
:100DF00001F1E02181F80024007800F01F018D400E
:100E00004009800000F1E020C0F8005130BD01F041
:100E10001F0085404809800000F1E020C0F88051A3
:100E200030BD00000CED00E00249084302490860B3
:100E3000704700000000FA050CED00E070B50025D9
:100E40000021284600F0E0F80024002000F06AF9B4
:100E5000641CE4B2802CF8D36D1CEDB2082DEFD3E6
:100E600070BD10B500214FF47A720020401C9042F2
:100E7000FCD3491C6429F8D300F052F8AE2000F0EE
:100E800035F9D52000F032F9802000F02FF9A820A4
:100E900000F02CF93F2000F029F9D32000F026F9CA
:100EA000002000F023F9402000F020F9A12000F0FC
:100EB0001DF9C82000F01AF9DA2000F017F9122005
:100EC00000F014F9812000F011F9CF2000F00EF9A4
:100ED000D92000F00BF9F12000F008F9DB2000F038
:100EE00005F9302000F002F9A42000F0FFF8A62058
:100EF00000F0FCF88D2000F0F9F8142000F0F6F86E
:100F0000AF2000F0F3F8BDE81040FFF797BF0346AD
:100F1000012000E05843491E4A1CFBD170470000E5
:100F20002DE9FC470121042002F084FC01208DF80A
:100F3000040000218DF8061002218DF805108DF8AF
:100F4000070004030094DFF8749069464846FFF7F1
:100F50007BFD6500009569464846FFF775FDA600D4
:100F6000009669464846FFF76FFDE700009769461F
:100F70004846FFF769FD4FF40068CDF800806946E8
:100F80004846FFF761FD012221464846FFF7B1FDC3
:100F9000012229464846FFF7ACFD0122314648466A
:100FA000FFF7A7FD012239464846FFF7A2FD0122BF
:100FB00041464846FFF79DFDBDE8FC87000802401A
:100FC0002DE9F047074600240E4E4FF480554FF0B0
:100FD00080084FF40059002229463046FFF789FD6A
:100FE00028FA04F23A4049463046FFF782FD0122D2
:100FF00029463046FFF77DFD641CE4B2082CEAD395
:10100000BDE8F0870008024010B50C4640F0B00083
:1010100000F06CF8102040EA141000F067F804F0BB
:101020000F00BDE8104000F061B800002DE9F0416C
:101030001546491E461ECF007006F9B2000EFFF796
:10104000E3FF00240E48203D00EB0515285D00F06D
:1010500069F8641CE4B2082CF8D3012000EB4600C8
:10106000F9B2C0B2FFF7D0FF00242819007A00F0CF
:1010700059F8641CE4B2082CF7D3BDE8F0810000F5
:10108000DE4200082DE9F04781460F4690461E4695
:1010900000240A2512E0311B491E0A20FFF737FF02
:1010A000B8FBF0F2B2FBF5F005FB10223819C1B223
:1010B00030324846FFF7BAFF641CE4B2B442EAD3C8
:1010C000BDE8F0872DE9F04107460D46164600249D
:1010D00006E02819C1B23846FFF7A8FF641CE4B245
:1010E000325D002AF5D1BDE8F081000070B50646FA
:1010F0000B4D4FF40064002221462846FFF7F9FC0F
:10110000002221012846FFF7F4FC3046FFF758FF84
:1011100021462846BDE870400122FFF7EABC0000E6
:101120000008024070B506460B4D4FF400640022E3
:1011300021462846FFF7DDFC0122D1032846FFF7B0
:10114000D8FC3046FFF73CFF21462846BDE87040FA
:101150000122FFF7CEBC00000008024070470000EB
:1011600002480068002800D000477047480000206F
:1011700010B5044600F0AAF83F48002202703F482C
:1011800002703F4802703F4802603F4802603F489B
:1011900002703F4802703F4802703F4802603F487B
:1011A00002603F4802603F49086840B13E4800681D
:1011B00028B1096801E0491E04C00029FBD13B4861
:1011C00002603B4802603B4802603B4802603B488B
:1011D00002603B4802603B4802603B48027001F0FD
:1011E0009FFB01F0D5FB204601F004F92088002880
:1011F00041D1204601F052F9208800283BD12046F9
:1012000001F058F92088002835D1204601F00AFA6B
:10121000208800282FD1204601F0AEFB208800282E
:1012200029D1204601F06EFC2088002823D12046D9
:1012300001F082FE208800281DD1204601F0FAF836
:101240002088002817D1204602F07EF92088002847
:1012500011D1204601F066FD208800280BD12046E0
:1012600002F0DCF92088002805D101F0C1F8BDE8C2
:101270001040FFF773BF10BD5C0000205D00002030
:1012800090000020F8000020FC00002076000020E4
:1012900077000020780000208400002088000020D3
:1012A0008C000020E0480008DC4800083C000020DA
:1012B0004000002044000020480000204C00002096
:1012C0005000002054000020BE00002005480649C0
:1012D0000068096800EB8100044920F007000860FD
:1012E00070470000DC480008E048000800010020CA
:1012F00005480078012805D104490878FA2801D268
:10130000401C0870704700005D0000205C00002059
:1013100010B52248007801283ED1FEF769FF044647
:101320001F49087840B1401EC0B2087048B120463D
:10133000BDE81040FEF760BF2046BDE81040FEF754
:101340005BBF1848007820B12046BDE81040FEF78A
:1013500053BF01F0D3FA14490870144900EB400060
:1013600051F820001249086012490968884204D1E6
:101370002046BDE81040FEF73FBF50F88C1F491CC7
:1013800001600D480168491C0160FFF7D6F820464E
:10139000BDE81040FEF730BF10BD00005D0000202A
:1013A0005C0000209000002077000020D82600205C
:1013B000FC000020F8000020B40000202DE9F041DE
:1013C00004460D461646002C1CD0FEF711FF0746BA
:1013D0000E482060656000252562656284F828500B
:1013E000E56204F1080001F0B9F9204601F0BCF80B
:1013F00007490888401C08803846FEF7FDFE358006
:10140000BDE8F08145F6C3503080F9E74D5554589A
:10141000740000202DE9F04F89B00646129D8B46DE
:1014200090461C46002E0BD0B8F1000F0CD0B8F53A
:10143000004F09D045F62560288009B0BDE8F08F3F
:1014400045F6C3502880F8E745493068884203D004
:1014500045F6C4502880F0E7002704B12760FEF766
:10146000C7FE814696F82810DFF8F8A089B1706AA7
:10147000DAF8002090421FD1491C86F828100CB1E0
:10148000F06A20604846FEF7B7FE45F28270288079
:10149000D3E7DAF800007062012086F828000CB16A
:1014A000F06A20603146DAF8000001F06FF8484633
:1014B000FEF7A2FE2F80C0E75FEA084106D5484646
:1014C000FEF79AFE46F2B0102880B6E72649097862
:1014D00031B14846FEF790FE46F663502880ACE7EF
:1014E00090F8373092F837108B4201D901F092FC16
:1014F0005B460422314601A801F0A0F84846FEF7F9
:101500007BFE00F0D3F8FEF773FEDAF8002092F8C5
:10151000351059B101290ED0022919D0032911D053
:1015200046F62E612980FEF767FE86E70CB1916CC6
:1015300021602F80F7E70CB1916C216046F2A91170
:101540002980F0E704B1276047F2D9212980EAE732
:101550000CB1916C216045F6C2512980E3E700008F
:101560004D555458F8000020900000202DE9F84F08
:10157000044689461546002C0AD0B9F1000F0BD05D
:10158000B9F5004F08D045F625602880BDE8F88FF2
:1015900045F6C3502880F9E741492068884203D0C6
:1015A00045F6C4502880F1E7FEF722FE8246DFF8B8
:1015B000F4B0606ADBF80010884206D05046FEF7AF
:1015C0001BFE45F281702880E0E7FFF7E1F98046D5
:1015D000C4F82C8094F82800401EC0B284F828007B
:1015E00030B15046FEF708FE45F283702880CDE703
:1015F0002146DBF8000001F009F804F108073889FA
:10160000F0B3DBF8000090F8371090F838209142E2
:101610001DD000F0EAFFDBF8001091F8382082427C
:1016200000D21046064691F83700B0420FD2084665
:1016300001F012FADBF8000080F83760304601F064
:101640007BF9DBF8000001F0EBF917480670386809
:1016500086686662012084F828002146304600F042
:1016600095FF00231A4631462046CDF8008001F050
:10167000D8F85046FEF7C0FD5FEA094003D400E009
:1016800004E000F013F8002028807FE7002666625F
:1016900084F828605046FEF7AFFD2E8076E7000004
:1016A0004D555458F80000207600002010B517481A
:1016B0000078002829D116480078002825D1FEF7A7
:1016C00097FD044601F01AF912490870124900EB1F
:1016D000400051F82000114908601149096888420A
:1016E00004D12046BDE81040FEF786BD50F88C1F9F
:1016F000491C01600B480168491C0160FEF718FF96
:101700002046FEF779FDBFF36F8F10BD5C0000200F
:101710009000002077000020D8260020FC00002048
:10172000F8000020B400002070B504460E48007890
:10173000012803D045F68960208070BD0B4D2878C4
:10174000FA2803D345F20920208070BDFEF750FD32
:1017500006462878401C287001F0A8F93046FEF7AC
:101760004BFD0020208070BD5D0000209000002017
:1017700070B5044613480078012803D045F6896007
:10178000208070BD104E307870B1FEF731FD0546F7
:101790003078401EC0B2307050B12846FEF72CFDA4
:1017A00046F66350208070BD46F66450208070BDC0
:1017B00001F08AF92846FEF71FFDFFF777FF0020AA
:1017C000208070BD5D0000209000002070B50446B0
:1017D0000F4D2878002803D045F68A60208070BD20
:1017E00001F08CF80B4908700B4908700B4900EBAD
:1017F000400051F820000A4908600A4908600120A9
:101800002870FEF75DFE43F69920208070BD000031
:101810005D0000207700002076000020D826002000
:10182000FC000020F80000202DE9F0410646FEF7FC
:10183000DFFC234900250D8022490D6022490D60FF
:1018400022490D6022490D6022490D81FEF7D4FC2A
:10185000FEF7CEFC20490C68FEF7CEFC17E0FEF741
:10186000C7FC07467434E56325602563A561A5823E
:10187000E5826562A562FFF78BF82062743C204622
:10188000A0F86C50D4F8B8403846FEF7B5FC002CF0
:10189000E5D1FEF7ADFC11490C68FEF7ADFC06E0A2
:1018A000FEF7A6FC21468D85A469FEF7A5FC002C59
:1018B000F6D101F076FD01F04DFF3580BDE8F081F5
:1018C0009E000020B0000020C4000020E80000209E
:1018D00088000020CC260020B80000207C000020DA
:1018E000F8B504466946224800F078FBBDF80000D0
:1018F00008B12080F8BD6A460021022000F0B4FB48
:10190000BDF8000008B12080F8BDFEF771FC194E4B
:1019100000253560FEF770FC00201749174A0B6858
:101920001768BB4203D908681268B0FBF2F018B917
:1019300009680A20B1FBF0F06A46002100F094FB30
:1019400069460B4800F07AF9BDF8000008B1208024
:10195000F8BDFEF74DFC0A490D600A4A3168116076
:10196000094A01211170FEF747FC2580F8BD0000EF
:10197000882B0020A000002004490008F04800083F
:10198000B0000020A4000020AC0000200248006845
:10199000002800D0004770474C0000202DE9FF4F81
:1019A00083B00446DDE91795DDE91087139E934661
:1019B000002C0DD0BBF1000F0ED08FB1494800684C
:1019C000864211D246F63060288007B0BDE8F08F1D
:1019D00047F2AD102880F8E747F24F102880F4E76F
:1019E00046F62F602880F0E71298B04203D346F6FF
:1019F00031602880E9E746F27320B8F1400F01D347
:101A00002880E2E7B8F13F0F04D137498C4201D07A
:101A10002880DAE7204601F09FFA4FF0000AA5F887
:101A200000A05FEAC9700BD05FEA897008D538461C
:101A3000002103E0C0F800A0001D491CB142F9D309
:101A4000129807EB8005CDE900692B463A465846C7
:101A5000069900F00BFAC4F828B00699E1620499DF
:101A6000216284F8378084F838802060A560169859
:101A7000606067622664A4F84490002004EB800153
:101A8000C1F878A0401CC0B20028F7D004F1600073
:101A9000149900F061FD204600F02CF8FEF7A8FB39
:101AA000054694F8370000F047FF204600F0B8FFE5
:101AB000204601F00FFA0D490888401C08800C48A8
:101AC0000078012805D007B02846BDE8F04FFEF7A2
:101AD00093BB2846FEF790FB07B0BDE8F04FFFF739
:101AE000E5BD0000004900080C260020BC000020D5
:101AF0005D00002002490968002900D008477047AE
:101B00003C0000202DE9F04704460F46444884423B
:101B100004D147F24C103880BDE8F0872CB9FEF7AD
:101B200067FB40490C68FEF767FBFEF761FB8146E7
:101B300094F836004FF0000808286AD2DFE800F079
:101B400004080C0C47080C0C204600F085FF3EE012
:101B5000204601F0FDFB3AE094F8340007282DD22E
:101B6000DFE800F02C042C0408040400204600F0F8
:101B700028FE23E0206BC068456A15F8376F2046C1
:101B800000F01FFE28786978373D88420CD094F821
:101B90003710884208D1284600F027FD95F8381004
:101BA000814200D20846064684F8348095F8370012
:101BB000B04203D03146284601F02CF994F83600A3
:101BC000032801D0072802D1204601F0C1FBE06BB9
:101BD00010B1204600F0DEFC04F1600000F0A0FC33
:101BE000204600F023F8204601F086F90E490888C7
:101BF000401E0880204601F0AFF9FF2084F836002F
:101C00004846FEF7F9FAA7F80080BDE8F047FFF76D
:101C10004DBD4846FEF7F0FA46F62D6038807BE76A
:101C20000C260020F8000020BC00002002490968B2
:101C3000002900D0084770474000002070B50446D6
:101C40000D46FEF7D5FA1CB1084A1268944205D138
:101C5000FEF7D2FA47F25710288070BDFEF7CCFA93
:101C600029462046BDE8704001F0CAB9F8000020BE
:101C700002490968002900D0084770474400002045
:101C80002DE9F05F83468A4614461D46BAF1000FDF
:101C900008D0BAF5004F05D045F625602880002011
:101CA000BDE8F09F002604B12660FEF7A1FA814648
:101CB0003B4F3868D0F84C80B8F1000F1AD0A8F12B
:101CC0000108C0F84C800CB1806C2060FEF760FE0B
:101CD00001463868826C891AC0F8A010D0F8A42098
:101CE0008A4201D2C0F8A4104846FEF785FA2E8039
:101CF0004046D5E75FEA0A4007D54846FEF77CFA3A
:101D000046F2B01028800020CAE72648007838B193
:101D10004846FEF771FA46F6635028800020BFE778
:101D200000215B460722084600F088FC4846FEF783
:101D300063FAFFF7BBFCFEF75BFA8046396891F85F
:101D4000350068B101281ED0032823D046F62E6046
:101D500028803868C46C4046FEF74EFA20469FE75C
:101D60007CB1886C2060FEF713FE01463868826CF7
:101D7000891AC0F8A010D0F8A4208A4201D2C0F875
:101D8000A4102E80E5E70CB1886C206046F2A91003
:101D90002880DEE704B1266047F2D9202880D8E702
:101DA000F80000209000002070B506460C4615464D
:101DB000002C07D0B4F5004F04D045F625602880EC
:101DC000002070BDFEF7E4FD02462B46214630465A
:101DD000BDE8704001F07EB92DE9F047064688461F
:101DE00091461F4646F2D520B8F1000F06D0B9F152
:101DF000000F06D0FEF7FCF92EB106E03880BDE8F2
:101E0000F0873880FBE718490E684FF0000A316808
:101E100041B196F84410C9070ED0FEF7EDF9002441
:101E2000756A15E0FEF7E8F9C8F800A0C9F800A047
:101E300047F252103880E2E7FEF7DEF9C8F800A05A
:101E4000C9F800A047F254103880D8E72D1D641C53
:101E500028680028FAD0C8F80040306C001BC9F888
:101E60000000A7F800A0CAE7F800002030B5DDE9BF
:101E7000035402EB850222F007022C3A4FF08075E2
:101E8000956250623A4810624FF01230D0614FF0C4
:101E9000033090614FF0023050611361D1604FF018
:101EA000113090604FF0103050604FF0093042F820
:101EB00004094FF008301060101F4FF00731016027
:101EC0004FF0063140F8041C4FF0053140F8081C73
:101ED0000C384FF004310160610747D56900803844
:101EE000C16724498167244941672449016724491E
:101EF000C166244981662449416624490166244912
:101F0000C165244981652449416524490165244905
:101F1000C1642449816424494164244901644FF027
:101F20008341C1632249816322494163224901639C
:101F30002249C162224981622249416222490162E9
:101F40004FF08241C16121498161214941612149AB
:101F500001614FF08141C1601F4981600902416008
:101F60004FF07E5140F804190021016030BD00009F
:101F7000BD3000080000F8410000F0410000E841D9
:101F80000000E0410000D8410000D0410000C841FD
:101F90000000C0410000B8410000B0410000A8416D
:101FA0000000A041000098410000904100008841DD
:101FB00000007041000060410000504100004041BD
:101FC0000000304100002041000010410000E040CE
:101FD0000000C0400000A04000004040044A904281
:101FE00003D147F25B100880704701F0CFB80000C2
:101FF0000C26002070B5184D286890F84410490749
:1020000002D50068FEF746FA144C206890F8441098
:10201000490702D50068FEF74AFA1148006800B186
:102020008047FEF7B5FC29682368994207D09031B4
:102030004A68821A0A608C6822448A609039C3F820
:102040009400084AD1F8B0301068834201D2C1F838
:10205000B0000020106070BDF8000020FC000020DF
:10206000500000208C0000202DE9F04106460D466E
:1020700014461A480078002804D046F663502080A1
:10208000BDE8F0814DB1022D07D0042D06D0082DFA
:1020900003D045F625602080F2E786B1FEF7A8F868
:1020A00007462A460E4D23463146286801F00AF9B4
:1020B000208840B13846BDE8F041FEF79DB847F2B0
:1020C0007E202080DCE7286800F0C6FC3846FEF75A
:1020D00093F8FFF7EBFA00202080D1E79000002072
:1020E000F80000202DE9F0471646DDE90824454DAB
:1020F0002D78002D04D046F663502080BDE8F0878F
:1021000002F00E0547F27E2C45F6256845B1022DFA
:1021100006D0042D08D0082D02D0A4F80080EDE7E9
:1021200013B90EB901B920B132F01E0704D001274E
:1021300003E0A4F800C0E1E70027012F0FD0C2F3AD
:10214000001247F2792847F278294FF47A774AB19A
:1021500042F20F7291421BD9A4F80080CEE7A4F896
:102160000080CBE7BB4203D347F27B202080C5E74A
:102170003B2E03D947F27A202080BFE73B2902D9C2
:10218000A4F80080BAE7632807D9A4F80090B5E75F
:10219000B84202D3A4F80090B0E71B4A12684FF48B
:1021A000FA78B8FBF2F843445343B3FBF7F34FF428
:1021B00061677843C1EB011100EB8100304400FB03
:1021C0000236DEB1FEF714F807462A460F4D2346C5
:1021D0003146286801F076F8218821B13846BDE8FB
:1021E000F047FEF709B8286800F036FC3846FEF7DD
:1021F00003F8FFF75BFA002020807FE7A4F800C017
:102200007CE700009000002004490008F80000204E
:1022100008B500F01DF86A4600210948FFF7C4FD23
:1022200008490868401E0860002807D10648006871
:1022300008606A4600210548FFF7B6FD08BD0000AA
:10224000982A0020F4000020F0000020882B0020B5
:1022500002480068002800D0004770475400002062
:102260002DE9F05F0446DDE90BAB0A9E0D9D894622
:1022700017469846002C08D0012E11D0022E08D007
:1022800045F625602880BDE8F09F45F6C3502880BC
:10229000F9E7B8F1000F04D147F240302880F2E7A7
:1022A000FFB101F04BFA012084F826000F482060AE
:1022B000C4F80490E7610027A761C4F82080A684D1
:1022C000C4F808A0C4F80CB027616761204601F08B
:1022D00097F907490888401C088001F0A1FA2F806F
:1022E000D1E747F23F302880CDE70000544D52201F
:1022F000E400002070B504460D46002C08D02649A5
:102300002068884209D045F6C4502880002070BD5E
:1023100047F242302880002070BD94F8260078B340
:102320000026012811D0022806D003280DD047F23C
:1023300041302880002070BDFDF75AFFE169A1619E
:10234000FDF75AFF2E80012070BD01F0F7F9022041
:1023500084F82600E06980B1A0611049104A08683D
:1023600078B12061666144610C601088401C108067
:1023700001F056FA2E80012070BD206AA061ECE7C2
:1023800005E0266166610C6001201080F0E747F2ED
:102390003D302880002070BD544D5220E0000020C8
:1023A000DC00002010B5FDF723FF064A1178491C18
:1023B0001170FDF721FFFFF72BFFBDE81040FEF77E
:1023C000A7BF00005C0000204FF0E021401E4861E4
:1023D000064A106820F07F401060086940F0050050
:1023E0000861086940F002000861704720ED00E0D4
:1023F00070470000034A00211160034A11800180E8
:10240000704700006000002064000020074C084D69
:10241000FDF7EEFE2168491C21602968491C2960EE
:10242000FDF7EAFEFEF79CFEF2E7000058000020F0
:10243000A000002000B589B00D4A002111600B22D8
:10244000CDE9061208900C4A05910A480B4B126818
:1024500000681B68CDE90132CDE903013F200090FF
:102460000023074A07A10C48FFF798FA09B000BDFE
:1024700058000020D8480008D4480008D048000878
:102480000D24000875432F4F532D494949204964B5
:102490006C65205461736B000C260020034A0021F8
:1024A0001160034A1180018070470000680000201D
:1024B0006C000020F0B5174E316800290BD0164F84
:1024C000398861B13168326810323B885B1E9DB239
:1024D000002300240FE045F21E710180F0BD45F29B
:1024E0001D710180F0BD0A604C600C81CC60103120
:1024F00010325B1C9BB2AB42F5D30C604C600C817C
:10250000CC60064932680A603A888A80CC800C81A7
:102510000480F0BDE8480008E4480008CC2600200C
:1025200010B54289002A12D003680A490C681C6061
:1025300043680B60CB8844891B1BCB808B88448904
:1025400023448B80002141818181016041601046DC
:1025500010BD0000CC260020018100214181818135
:10256000016041607047000006A1C1610022426124
:10257000054B1968002903D08161486118607047D4
:102580008261FBE72000000070000020C26B0A623D
:10259000C1637047F8B50746FC6B1EE0256AFEF77D
:1025A000F7F90346E3622146384600F02FF804F1BC
:1025B00008000189A1B1006886686762012084F87B
:1025C000280021463046FFF7E1FF009300231A461A
:1025D0003146204600F025F92C46002CDED1F8BD0E
:1025E000002084F828006062F6E73F213C3008E0D4
:1025F00082682AB1926892F837208A4200D2114646
:10260000203000680028F3D1084670473C3001E0D4
:1026100002F1200002688A42FAD10168096A016069
:1026200070470000034A00211160034A11800180B5
:102630007047000070000020740000202DE9F04178
:102640000C4607461946104D286880F834200026AD
:1026500080F8356000F0C6FB64B104F10806FC6048
:1026600001223946286800F011F83946304600F05A
:102670007AF803E02868A0F84660066320462968D7
:10268000BDE8F04100F016B8F800002010B5A0F841
:10269000462001630024002309E04B600B600B61BE
:1026A0004B610B83CB6188602031641CA4B29442DF
:1026B000F3D310BD002809D04268C1F8BC2000F156
:1026C000080109688968096AC161704791F8340096
:1026D000022805D0072807D005A0C1F8BC00704724
:1026E00004A0C1F8BC00704704A0C1F8BC0070474A
:1026F000200000005461736B205100005461736B23
:102700002053656D0000000007A2C1F8BC2000F155
:1027100008010968002903D08968096AC161704706
:1027200001A1C161704700002000000070B5056B79
:10273000B0F846400FE0EE6808363089012807D926
:102740002946304600F052F82946304600F00BF892
:102750002035641EA4B2002CEDD170BD00210160B3
:1027600041600181704730B58A6892F8374002892C
:102770000025002A03D0521C028102680CE00122CD
:1027800002814D600D600160416030BD936893F837
:102790003730A34202D85268002AF7D132B1136809
:1027A00053B10B604A605960116030BD4D604268A2
:1027B0000A605160416030BD11600D604A60016087
:1027C00030BD70B50646356BB6F8464007E0E868A0
:1027D0000830294600F00AF82035641EA4B2002C07
:1027E000F5D10020A6F84600306370BD10B502890F
:1027F0000024012A0BD00A6862B14B6873B15360A0
:102800001A600289521E02814C600C6010BD046087
:102810004460F6E74A6814600260F2E75460426080
:10282000EFE7F8B5064606980C46002594F83610F2
:1028300008292AD2DFE801F02929040429292A2AB3
:1028400094F83410032910D0A265A4F85C30A06479
:1028500036B12046FFF7B5FF21463046FFF754FF5B
:1028600094F83600032806D008E000902146304650
:1028700000F030F8ECE7204600F06AFD204600F05A
:1028800099F83434A57065702570F8BD94F834104B
:10289000032910D0A265A4F85C30A06436B12046AC
:1028A000FFF78FFF21463046FFF72EFF94F83600E2
:1028B000072806D008E000902146304600F00AF8CC
:1028C000ECE7204600F044FD04203434A07065702D
:1028D0002570F8BD70B5049D0C6BB1F846100AE088
:1028E000E668864204D1206162612383E56170BDA0
:1028F0002034491E89B20029F2D170BD10B50024E0
:10290000064802E02034E4B2001D01680029F9D035
:102910000068FDF778FC2044C0B210BD34000020F0
:102920000020044A002142F82010401C0228FAD35B
:102930007047000034000020410900F01F02012010
:10294000C2F11F029040034B53F82120024343F889
:102950002120704734000020410900F01F020120AF
:10296000C2F11F029040034B53F82120824343F8E9
:102970002120704734000020034A00211160034ADF
:1029800011800180704700007C0000208000002042
:102990000020074B002200EB400103EB81010A817C
:1029A0000A604A60401CC0B24028F4D3704700005F
:1029B000D826002010B5044694F83700FFF7BCFF76
:1029C000074994F837000978884204D12046BDE8C9
:1029D000104000F025B82046BDE8104000F002B8D5
:1029E0007600002090F837100C4A01EB410102EB11
:1029F000810100230A89002A08D0521C0A810A6832
:102A0000C26003610A6810610860704701220A8190
:102A1000C36003610860486070470000D82600204A
:102A200090F837100B4A01EB410102EB81010023C2
:102A30000A89002A07D0521C0A81C3604A680261D1
:102A4000D0604860704701220A81C360036108605A
:102A500048607047D826002070B50446124994F8A3
:102A6000370000EB400001EB80012069E26800259F
:102A7000002808D00B895B1E0B81C26092B11061E7
:102A80002561E56070BD2AB10889401E0881156185
:102A90000A60F5E70D810D604D6094F83700FFF78F
:102AA0005BFFEDE74860EBE7D826002010B504484F
:102AB0000078012803D1FDF76BFF0249086010BDC3
:102AC000900000208400002010B50A4800780028FB
:102AD0000ED1FDF75DFF08490968401A07490A68E9
:102AE000824200D2086006490A68824200D2086029
:102AF00010BD00009000002084000020880000200D
:102B00008C000020034A00211160034A11800180DB
:102B10007047000094000020980000201CB5724E01
:102B2000724D3068440004E0204601AA0021FFF7FE
:102B30009BFA28780128F7D101A8FEF775FE4FF01F
:102B4000000A6B4832680168914203D90168326813
:102B5000B1FBF2FABAF1000F03D100680A21B0FB11
:102B6000F1FADFF890B14FF47A7842F210764FF034
:102B70000009A4E06048824202D23046012113E0FD
:102B80005E48824202D240460A210DE05C48824201
:102B900002D26420642107E05A48824202D20A200D
:102BA000414601E001203146B2FBF1F15843B0FB50
:102BB000F1F0301A80B2ABF8000053490A88824223
:102BC00003D2088001E0ABF80060FEF7DFFE0027CB
:102BD000FDF70EFB4D4C2568FDF70EFB0FE0FDF7F2
:102BE00007FB55F8981F6960C5F80090FDF704FBD6
:102BF00068680744FDF7FCFA2D6AFDF7FDFA002D21
:102C0000EDD1E7B13C48874202D23546012013E0BE
:102C10003A48874202D245460A200DE038488742AA
:102C200002D26425642007E03648874202D20A2592
:102C3000404601E001253046B7FBF0F701E00025F2
:102C40000127FDF7D5FA2468FDF7D6FA1DE0D4F880
:102C50009C006843B0FBF7F080B2B04200D9304628
:102C6000A4F88800B4F88A10814201D2A4F88A003E
:102C700004F1A80201AB111D2046FFF7ADF8FDF7E6
:102C8000B7FAD4F8B840FDF7B7FA002CDFD12048E6
:102C90000178012904D180F8009001A8FEF7C4FD55
:102CA000FDF776FE01460098081A1A490A68824222
:102CB00000D2086001AA00215046FFF7D5F9FDF7C0
:102CC00067FE0090FDF794FA1349144C0A682260DD
:102CD000C1F80090FDF790FA1148236802689A4203
:102CE0007FF671AF46E70000F0480008AC00002016
:102CF000044900089C000020801A060000093D00DD
:102D0000005A62020084D7179E000020B8000020FD
:102D10009A000020B0000020A0000020A8000020A1
:102D2000A400002030B589B01D4A002111601D4A61
:102D300011601D4A11601D4A11701D4A11701D4A13
:102D40001368002B0AD01C4C1C4D23682D68AB4225
:102D500008D246F62C61018009B030BD46F62B61E1
:102D60000180F9E7164B1D783F2D03D346F62A6103
:102D70000180F1E70325CDE906150890059111487A
:102D8000246812680068CDE90341CDE90120187874
:102D9000009000230C4A0DA11148FEF7FFFDDBE770
:102DA000A0000020A8000020A4000020AC0000200B
:102DB0009A000020F4480008FC4800080049000878
:102DC000EC480008F84800081D2B000875432F4FF9
:102DD000532D4949492053746174205461736B0029
:102DE000D829002010B50446002908D00A462146FB
:102DF000074800F02BFA032084F8360002E0022096
:102E000084F836002046BDE81040FFF725BE0000DC
:102E1000D00000202DE9F04104460E46002594F82C
:102E2000377094F8360008284FD2DFE800F0041815
:102E30001B1B18181B1B2046FFF70EFE84F837607B
:102E40003046FFF779FD22480068844203D12046CE
:102E5000FFF7C8FD36E02046FFF7E2FD32E084F8D8
:102E600037602FE084F8376094F83400072829D2BF
:102E7000DFE800F028042804080404002046FFF7D7
:102E800055FC1FE02046FFF751FC206BC068456AE7
:102E9000B74205D995F83700B04213D8002511E0A4
:102EA00095F83700B8420DD12846FFF79EFB95F8FC
:102EB0003810814200D20846064695F83700B042E5
:102EC00000D100252C46002CA8D1BDE8F0810000DF
:102ED000F80000200023C0F8B430064A1168002929
:102EE00005D0C0F8B810C1F8B40010607047C0F841
:102EF000B830FAE7B8000020D0F8B420D0F8B81005
:102F00000023002A08D079B1C2F8B810C1F8B42063
:102F1000B430436003607047064A116009B1C1F8DC
:102F2000B430C0F8B8307047C2F8B830C0F8B43028
:102F300070470000B8000020044A00211160044AD4
:102F40001180044A1160018070470000B800002021
:102F5000BC000020B400002070B5044600252560A8
:102F6000A5606560E56025616561A561E56121A0F9
:102F700020626562A562E562A564A565A4F85C505F
:102F8000002104F16000FFF7E7FA25676567E56750
:102F9000A4F88450C4F88050002004EB80018D67B1
:102FA000401CC0B20028F8D03434A561E56625671E
:102FB000E56084F85250A56765672582E561256262
:102FC000A4F85450A4F85650A565E565FDF7E0FC5B
:102FD00020666566E56725706570A5704020E07025
:102FE0002071A560C4F88050C4F8845003A0C4F8D0
:102FF000880070BD3F5461736B000000200000002A
:1030000070B504460D46FDF7F3F806460021298009
:1030100094F83600082849D2DFE800F004040404DC
:103020000B1B29373046FDF7E7F847F2531028808D
:1030300038E094F88600401EC0B284F8860020B9BB
:1030400084F836102046FFF7B5FC3046FDF7D4F87B
:1030500028E094F88600401EC0B284F8860010B9BB
:10306000012084F836003046FDF7C6F81AE094F8DF
:103070008600401EC0B284F8860010B9022084F891
:1030800036003046FDF7B8F80CE094F88600401E94
:10309000C0B284F8860010B9032084F836003046A8
:1030A000FDF7AAF8BDE87040FEF700BB3046FDF71B
:1030B000A3F846F62D60288070BD000008B50448CE
:1030C0000068FEF7D5FD69460020FEF71BFD08BD30
:1030D000F80000202DE9F8430446894615461E46AF
:1030E000FDF786F807460CB927480468A564002058
:1030F000308094F8360046F6C55808283BD2DFE801
:1031000000F00404151504041515E56C681C05D0C1
:103110006D1CE5643846FDF76FF833E03846FDF77F
:103120006BF8A6F800800020BDE8F88394F834001E
:10313000072808D0E56C681C16D06D1CE56438467D
:10314000FDF75AF81EE000231A462146184600955E
:10315000FFF767FBE56C3846FDF74EF85FEA09407C
:1031600010D4FEF7A3FA0DE03846FDF745F8A6F8AF
:1031700000800020D8E73846FDF73EF846F62D607F
:10318000308000252846CFE7F800002070B50446BF
:103190000D46FDF72DF806462A4804B90468006874
:1031A000844209D12848007830B13046FDF724F830
:1031B00046F66350288070BD0020288094F83610B1
:1031C0000120082937D2DFE801F0041019222B2B47
:1031D0002B2B042184F8361084F886002046FFF754
:1031E0003BFC3046FDF708F821E0052184F8361055
:1031F00084F886003046FCF7FFFF18E0062184F8CB
:10320000361084F886003046FCF7F6FF0FE0072101
:1032100084F8361084F886003046FCF7EDFF06E0AF
:1032200014F8860F401C20703046FCF7E5FFBDE81F
:103230007040FEF73BBA3046FCF7DEFF46F62D60E5
:10324000288070BDF80000209000002030B5036891
:103250000025002B01D01C4629E00A654D618D61D7
:10326000C86101600121818030BD1C6D94421BD377
:103270009C6964B10A658C614B61C8611D6DAA1AB5
:103280001A65996161618188491C818030BD0A6538
:103290008D614B61C8611C6DA21A1A65996101604C
:1032A0008188491C818030BD121B1C465B69002B44
:1032B000DBD10A658C614D61C86161618188491CFF
:1032C000818030BD2DE9F0411C461F4BDFF8748032
:1032D00000271B6847F27E2C042A04D0082A0BD052
:1032E00059B30A4616E0CA1A424500D892B9076592
:1032F000A4F800C0BDE8F081456D5E1B8E4203D985
:103300000A461944416505E08A1B42450BD852B173
:1033100029444165012180F8361001460B48FFF72A
:1033200095FF2780E6E7B6FBF1F201FB025211445C
:1033300041650765A4F800C0DCE70765A4F800C094
:10334000D8E700000000FFFFC0000020C8000020F8
:1033500030B5C269836941690024002B0ED05961E0
:1033600021B18B610B6D056D2B440B6584619188D8
:10337000491E918044610465C46130BD61B18C61B6
:103380000B6D056D2B440B6511609188491E918072
:1033900044610465C46130BD146094800465C461F7
:1033A00030BD70472DE9F047FCF722FF8146FDF75D
:1033B000EFFA80460026184D2C6804B3206D401E9D
:1033C0002065002718E0761CB6B294F83600012874
:1033D00002D0052806D008E084F836702046FFF7B2
:1033E000E9FA02E0042084F8360064692C608CB1AC
:1033F000A888401EA880A761206D0028E3D0EE8039
:10340000FDF7C6FAA0EB08044846FCF7F5FE204697
:10341000BDE8F087AF80F2E7C80000202DE9F04753
:10342000FCF7E6FE8246FDF7B3FA81460027334EED
:103430003468E4B3206D401E2065B8464DE07F1C23
:10344000BFB2002594F83400042802D1206BC06874
:10345000456AC4F85880A4F85C80FDF799FAA06426
:103460002046FFF7AEF994F83600032802D007286B
:1034700006D008E02046FFF79DFA84F8368002E087
:10348000042084F83600032084F8350084F8348062
:10349000DDB195F8370095F83810884215D094F8CA
:1034A0003710884211D12846FFF79FF800E017E057
:1034B00095F83810814200D20846014695F8370049
:1034C000884202D02846FFF7A5FC6469346094B1B5
:1034D000B088401EB080C4F81880206D0028AED09F
:1034E000F780FDF755FAA0EB09045046FCF784FE7F
:1034F0002046BDE8F087A6F80480F1E7D000002060
:1035000008B50F4C0F4D00226B4611461046FEF7D2
:10351000B7FBBDF800000028F5D1FCF769FE216873
:10352000491C2160FCF768FEFFF73CFF0646FFF7E9
:1035300075FF304429688142E5D22860E3E7000046
:10354000C0000020C400002030B589B01D4A002111
:1035500011601D4A11601D4B19609180D1809980C6
:10356000D9801B4B1A68002A0AD01A4C1A4D2268BF
:103570002D68AA4208D247F21321018009B030BD5C
:1035800047F212210180F9E7144A15783F2D03D341
:1035900047F211210180F1E70B25CDE906150591D0
:1035A000089020680E4C1B682468CDE90134CDE9F1
:1035B00003011078009000230A4A0BA10F48FEF780
:1035C000EDF9DBE7C0000020C8000020D00000209B
:1035D0000C4900081449000800490008084900087F
:1035E000104900080135000875432F4F532D4949F4
:1035F00049205469636B205461736B00982A002042
:1036000000238362044A1168002903D0C1628862E2
:1036100010607047C362FBE7D800002030B589B066
:1036200004462B48002505602A4805602A48058085
:103630002A4A2B492B481368002B05D009681268C9
:10364000B1FBF2F1016004E009680A22B1FBF2F17A
:103650000160254900680860244805602448056029
:10366000224624A12748FDF7A9FE208800280BD177
:103670002548016851B1254A254B11681B689942BC
:1036800008D247F24830208009B030BD47F24730B9
:103690002080F9E71F490B783F2B03D347F24630D0
:1036A0002080F1E70B23CDE90653059508941A4BCA
:1036B000126800681B68CDE90325CDE9010308788D
:1036C00000900023154A16A11B48FEF767F9DBE7B7
:1036D000D8000020E0000020DC0000201C49000889
:1036E00004490008F0000020F4000020EC00002055
:1036F000E80000204F5320546D72204D757465789A
:1037000000000000582B002020490008284900082C
:1037100000490008184900082449000859370008E2
:1037200075432F4F532D4949492054696D657220C7
:103730005461736B00000000882B00200EB502A8B6
:103740000022009001AB11460148FDF763FE0EBD5B
:10375000582B0020704700001CB51F4EDFF87C80FE
:103760001F4F002101AB6A460846FEF789FAFFF7B2
:10377000E5FFFDF70DF981463068401C3060D8F850
:10378000004019E001A8FDF7CFFF2569A069401EA0
:10379000A06168B9A08C02281BD0204600F022F856
:1037A000032084F82600A26812B12046E168904701
:1037B0002C4601A8FDF7DCFF002CE3D1FDF7E8F86B
:1037C000A0EB090400F02CF83868A042C9D23C6094
:1037D000C7E7206AA061E6E7EC000020E0000020D7
:1037E000E800002010B50C4A0023016914688442E7
:1037F00003D1116029B14B6103E04269116101B14C
:103800004A61012180F82610036143610348018861
:10381000491E018010BD0000E0000020DC000020F7
:1038200008B56A4600210248FDF7A0FE08BD000069
:10383000582B0020054A002903D01168014311606C
:1038400070471168814311607047000030380240B2
:10385000054A002903D011680143116070471168BF
:10386000814311607047000044380240054A002936
:1038700003D01168014311607047116881431160E2
:10388000704700002438024070B5244B196801F0DD
:103890000C01234C00291ED0224E04291DD00829DA
:1038A0001DD00460196801F0F00109091E4A545C3A
:1038B0000168E14041601C6804F4E054A40A145D0E
:1038C00021FA04F484601B6803F460435B0BD25C50
:1038D000D140C16070BD0460E4E70660E2E70F4AD2
:1038E000121F1168C1F38055116801F03F0135B115
:1038F000B6FBF1F11468C4F38814614305E0B4FB2E
:10390000F1F11468C4F3881461431268C2F30142F0
:10391000521C5200B1FBF2F10160C3E708380240CB
:103920000024F40040787D01000000207047000072
:103930000CB50022019200922749086840F48030BB
:1039400008604FF4A043086800F40030009001982C
:10395000401C0190009810B901989842F3D1086872
:10396000800302D50120009000E000920098012819
:1039700031D119484030026842F080520260174845
:10398000026842F440420260134808300268026054
:10399000026842F400420260026842F4A0520260EF
:1039A000021F0F4B13600A6842F080720A600A68B7
:1039B0009201FCD50B4A40F205711160016821F0BB
:1039C00003010160016841F0020101600168C1F377
:1039D00081010229FAD10CBD00380240007000407C
:1039E00019544007003C024010B51248016841F4E8
:1039F000700101601048016841F0010101600E4A48
:103A000000210832116002680C4B1A400260031D4D
:103A10000B4A1A60026822F48022026006480C30C9
:103A20000160FFF785FF03494FF0006080390860AF
:103A300010BD000088ED00E000380240FFFFF6FEF8
:103A40001030002410B5104C40F22551204600F0F3
:103A500032F8002816D0FDF74BFC204600F0C4F8E1
:103A60000A4BA3F1140211785854491CC8B21070C3
:103A7000042803D30020107001205070BDE81040CE
:103A8000FDF746BC10BD00000010014024000020DE
:103A9000002904D0818941F40051818170478189D6
:103AA00021F40051818170470246002012880A42A9
:103AB00000D00120704770B5002440F66A12C1F3AF
:103AC000421301F01F05012606FA05F2012B0CD066
:103AD000022B0DD0838A1340090A8E4000883040A3
:103AE0000BB100B10124204670BD83891340F3E778
:103AF000038A1340F0E710B540F66A13C1F342138E
:103B000001F01F040121A140012B07D0022B07D097
:103B100014303AB102680A43026010BD0C30F8E775
:103B20001030F6E702688A43026010BD7FB5044694
:103B30000D46208A20F44051E88808432082A0895D
:103B400041F20C618843A9882A8911436A8902439A
:103B50001143A181A08A20F44071A8890843A08262
:103B60006846FFF791FE1E48844202D01D488442F9
:103B700001D1039800E00298A189090408D500EB5F
:103B8000C00101EB001029684900B0FBF1F007E02B
:103B900000EBC00101EB001029688900B0FBF1F0D7
:103BA0006422B0FBF2F109010B096FF018056B43B9
:103BB00000EB8300A3891D044FF0320307D503EB0C
:103BC000C000B0FBF2F000F00700084306E003EB92
:103BD0000010B0FBF2F000F00F00084320817FBD21
:103BE00000100140001401408088C0F308007047B5
:103BF000C1F3080181807047FEE700000FB4054B58
:103C000010B503A9044A029800F018F810BC5DF83A
:103C100014FB0000813F00080401002002E008C8F6
:103C2000121F08C1002AFAD170477047002001E036
:103C300001C1121F002AFBD1704700002DE9FF4F80
:103C40008BB088460546002606E025280BD0DDE926
:103C50000D1290476D1C761C28780028F5D10FB006
:103C60003046BDE8F08F0024A146A2460122AE49AD
:103C700000E0044315F8013F203B02FA03F008423C
:103C8000F7D128782A2810D06FF02F022878A0F1D9
:103C90003001092915D809EB890102EB410144F0F3
:103CA000020400EB01096D1CF0E758F8041B5FEA01
:103CB000010903D544F40054C9F1000944F0020499
:103CC0006D1C28782E2817D115F8010F44F0040434
:103CD0002A280ED06FF02F022878A0F13001092990
:103CE0000AD80AEB8A0102EB410100EB010A6D1CC4
:103CF000F2E758F804AB6D1C28786C280FD006DC6E
:103D00004C2817D068280DD06A2814D104E07428F4
:103D100010D07A280FD10DE044F400140AE044F4E6
:103D2000801401E044F440146978814202D104F522
:103D300080146D1C6D1C2878692865D006DC00286D
:103D40008DD0632827D0642806D15DE06E2808D086
:103D500073282AD0752877D0DDE90D129047761C9C
:103D6000E0E0C4F30250022809D003280DD0D8F8AF
:103D7000001004280DD00E6008F10408D2E0D8F835
:103D80000010F217C1E90062F6E7D8F800100E80C3
:103D9000F2E70E70F0E718F8041B8DF80010002011
:103DA0008DF80100EB46012003E058F804BB4FF00A
:103DB000FF3061074FF0000701D40AE07F1C574530
:103DC0000DDA8742FADB1BF807100029F6D106E06E
:103DD0007F1C8742FCDB1BF807100029F8D1DDE9C6
:103DE0000D23A9EB07008146214600F0B1F83044CD
:103DF000C61904E0DDE90D121BF8010B90477F1E88
:103E0000F8D22146484688E058F8040BC4F3025122
:103E10004FF00A0B032900D100B2042900D140B2AF
:103E2000002802DA40422D2102E0210505D52B2190
:103E30008DF82410012104E006E0E10710D02021D4
:103E4000F6E708AF089113E058F8040BC4F30251E9
:103E50004FF00A0B032900D180B2042900D1C0B26F
:103E60000021EEE75946FCF771FA303107F8011DE1
:103E70000028F7D1ADEB070000F1200B600702D559
:103E800024F4803401E04FF0010ADA4502DDAAEBA8
:103E90000B0000E00020824600EB0B010898014473
:103EA000A9EB01000A90E00306D4DDE90D232146C9
:103EB0000A9800F04DF806444FF0000908E009A9FF
:103EC00011F80900DDE90D12904709F10109761C8E
:103ED00008998945F3DBE0030CD5DDE90D23214684
:103EE0000A9800F035F8064404E0DDE90D123020B0
:103EF0009047761CBAF10001AAF1010AF5DC05E051
:103F0000DDE90D1217F8010B9047761CBBF100019B
:103F1000ABF1010BF4DC0A982146DDE90D2300F03A
:103F200005F806446D1C97E6092801002DE9F041CB
:103F3000044600251E461746880404D405E0394689
:103F40002020B0476D1C641EF9D52846BDE8F081DD
:103F50002DE9F041044600251E469046C80301D5D0
:103F6000302700E02027880404D505E04146384684
:103F7000B0476D1C641EF9D52846BDE8F0810000ED
:103F800070B50446064DE1B22846FFF731FE8021A8
:103F90002846FFF789FD0028F9D0204670BD0000B3
:103FA000001001400EB5DFF8A490294C40F22558CE
:103FB00040F2465502AE08270020FCF7CFFDA2884C
:103FC000A281012806D0022815D0032827D0042872
:103FD00030D12CE0206940422061401C05D00122F4
:103FE00041464846FFF787FD24E000224146484607
:103FF000FFF781FD1EE0E08800EB80014FF6FF70C7
:1040000000EA4100E080A178491EA170A0F51C5192
:1040100010390FD10120E0800420A0700AE0E08870
:10402000104480B2A081A84204D3A58102E0E088B8
:10403000101AA081A089A0800022CDE90076322349
:1040400011461046FEF74EF8B6E70000001001409A
:104050001000002008B5114C0F4D40274FF080088C
:10406000A6156889A988884204D96783A4F81880AE
:10407000268309E004D22783A4F81880668303E02E
:104080002783A4F81A8026836A464FF000014FF078
:104090006400FDF7E9FFE4E71000002000000240A3
:1040A00000B58BB00AA8FDF763F800200AA9032227
:1040B0000590CDE9072106900C220B4BCDE901328A
:1040C00005208021CDE9031002200090064800233E
:1040D000064A07A1C038FDF761FC0AA8FDF776FB88
:1040E0000BB0002000BD0000C801002089070008B7
:1040F000417070205461736B2053746172740000BE
:104100000EB5284C02AD082648E0012126A208463B
:10411000FCF7D8FF27A201210220FCF7D3FF28A239
:1041200001210320FCF7CEFF27A201210420FCF788
:10413000C9FF0423628906210220FCF7A3FF0423A0
:10414000228906210320FCF79DFF0423A288062173
:104150001846FCF797FF19E001211DA20846FCF75D
:10416000B1FF1EA201210220FCF7ACFF1EA201211B
:104170000320FCF7A7FF14A201210420FCF7A2FFF3
:104180000423A28906211846FCF77CFF0022CDE912
:104190000065142311461046FDF7A4FF206901288D
:1041A000DAD1B2E71000002052554E4E494E47205A
:1041B0002020000050563A202020202020202000DF
:1041C00052543A202000000053563A2020000000AC
:1041D00053455454494E47202020000052473A305E
:1041E0002D31333530204300202020202020202076
:1041F0002020000070B5FBF7FBFF05460A211020C8
:10420000FCF796FC0A4C20810A210120FCF790FC67
:10421000FCF776F89FED071B53EC112BFBF7FEFF25
:10422000FCF77BF860812846BDE87040FBF7E4BFEF
:1042300010000020D26F5F07CE19D53F70B5194C22
:104240002069012808D0A078BDE87040401DC1B2A7
:1042500015A20420FCF736BFFBF7CAFF05466078BD
:1042600001280ED1002060700E480021143000F0AB
:1042700021F8A08140F24651884200D3A181A08953
:10428000A080218909A0FFF7B9FC618907A0FFF789
:10429000B5FCA18805A0FFF7B1FC2846BDE8704039
:1042A000FBF7AABF10000020200000002530346476
:1042B0000000000070B5044600203022CD1C0BE049
:1042C000635C00EB8000B3FBF2F602FB163303EBFA
:1042D000400080B2491CC9B2A942F1D970BD0000AA
:1042E00000000000000000000000000000000000CE
:1042F00000F8000000000000003330000000001053
:104300000C06100C0600000000000000000040C079
:104310007840C0784000043F04043F04040000706B
:1043200088FC08300000001820FF211E0000F00863
:10433000F000E018000000211C031E211E0000F008
:104340000888700000001E21232419272110101650
:104350000E0000000000000000000000000000004F
:1043600000E01804020000000007182040000002CE
:104370000418E00000000040201807000000404042
:1043800080F0804040000202010F010202000000A4
:1043900000F0000000000101011F01010100000008
:1043A00000000000000080B070000000000000006D
:1043B00000000000000000010101010101010000F6
:1043C000000000000000003030000000000000008D
:1043D000000080601804006018060100000000E082
:1043E00010080810E000000F102020100F0000102F
:1043F00010F8000000000020203F20200000007086
:10440000080808887000003028242221300000307D
:104410000888884830000018202020110E00000075
:10442000C02010F8000000070424243F240000F8F6
:104430000888880808000019212020110E0000E0DB
:10444000108888180000000F112020110E0000387D
:104450000808C83808000000003F00000000007095
:10446000880808887000001C222121221C0000E01E
:1044700010080810E0000000312222110F00000097
:1044800000C0C0000000000000303000000000004C
:1044900000800000000000008060000000000000BC
:1044A0008040201008000001020408102000404055
:1044B0004040404040000404040404040400000898
:1044C000102040800000002010080402010000704D
:1044D00048080808F0000000003036010000C03035
:1044E000C828E810E0000718272423140B00000058
:1044F000C038E0000000203C23020227382008F8E2
:10450000888888700000203F202020110E00C030D5
:10451000080808083800071820202010080008F8AC
:1045200008080810E000203F202020100F0008F8A5
:104530008888E8081000203F20202320180008F871
:104540008888E8081000203F200003000000C030E9
:1045500008080838000007182020221E020008F86A
:1045600008000008F808203F210101213F20000831
:1045700008F8080800000020203F2020000000006C
:104580000808F8080800C08080807F00000008F854
:1045900088C028180800203F20012638200008F88D
:1045A000080000000000203F20202020300008F8F4
:1045B000F800F8F80800203F003F003F200008F80E
:1045C00030C00008F808203F200007183F00E01026
:1045D00008080810E0000F10202020100F0008F835
:1045E00008080808F000203F210101010000E01048
:1045F00008080810E0000F18242438504F0008F86D
:10460000888888887000203F2000030C30200070CC
:104610008808080838000038202121221C001808CA
:1046200008F8080818000000203F2000000008F8E3
:1046300008000008F808001F202020201F0008782C
:10464000880000C83808000007380E010000F8088C
:1046500000F80008F800033C0700073C03000818B6
:1046600068808068180820302C03032C302008381C
:10467000C800C83808000000203F200000001008D3
:104680000808C8380800203826212020180000001B
:1046900000FE020202000000007F40404000000CCB
:1046A00030C000000000000000010638C000000219
:1046B0000202FE000000004040407F0000000000B9
:1046C00004020202040000000000000000000000DC
:1046D00000000000000080808080808080800002D8
:1046E00002040000000000000000000000000000C4
:1046F0008080808000000019242222223F2008F8B8
:10470000008080000000003F112020110E000000FA
:10471000008080800000000E112020201100000089
:1047200000808088F800000E112020103F2000003B
:10473000808080800000001F22222222130000803F
:1047400080F0888888180020203F2020000000008A
:10475000808080808000006B94949493600008F8BF
:10476000008080800000203F210000203F2000804A
:104770009898000000000020203F2020000000004A
:1047800000809898000000C08080807F000008F8BA
:10479000000080808000203F24022D30200000088F
:1047A00008F8000000000020203F2020000080804A
:1047B000808080808000203F20003F20003F80805C
:1047C000008080800000203F210000203F2000006A
:1047D000808080800000001F202020201F0080801B
:1047E00000808000000080FFA12020110E0000004A
:1047F000008080808000000E112020A0FF8080803B
:1048000080008080800020203F21200001000000E7
:1048100080808080800000332424242419000080BC
:1048200080E0808000000000001F202000008080C9
:10483000000000808000001F202020103F2080808A
:1048400080000080808000010E300806010080801A
:104850000080008080800F300C030C300F0000803F
:104860008000808080000020312E0E31200080806A
:1048700080000080808080818E701806010000809A
:104880008080808080000021302C222130000000B8
:104890000000807C020200000000003F4040000059
:1048A0000000FF00000000000000FF000000000208
:1048B000027C800000000040403F00000000000635
:1048C00001010202040400000000000000000000DA
:1048D0008C18002006000000400000008C19002009
:1048E00064000000640000001C1B00200B0000009E
:1048F0000A0000005C2100200A00000064000000A3
:1049000040000000E803000001000000EC2200204D
:104910000A000000640000000B0000000A00000014
:104920007C2400200A000000640000004C490008BC
:1049300000000020080100001C3C0008544A000848
:1049400008010020402F00002C3C0008000000005F
:104950000102030401020304060708090000040021
:1049600064000100000000000000000001000000E1
:104970000000000000010000000000000000000036
:104980000000000000000000000000000000000027
:104990000000000000000000000000000000000017
:1049A0000000000000000000000000000000000007
:1049B00000000000000000000000000000000000F7
:1049C00000000000000000000000000000000000E7
:1049D00000000000000000000000000000000000D7
:1049E00000000000000000000000000000000000C7
:1049F00000000000000000000000000000000000B7
:104A000000000000000000000000000000000000A6
:104A10000000000000000000000000000000000096
:104A20000000000000000000000000000000000086
:104A30000000000000000000000000000000000076
:104A40000000000000000000000000000000000066
:044A50000000000062
:040000050800018965
:00000001FF
